{
	"contracts/struct.sol": {
		"SimpleStruct": {
			"abi": [
				{
					"inputs": [
						{
							"internalType": "uint8",
							"name": "_index",
							"type": "uint8"
						},
						{
							"internalType": "string",
							"name": "_name",
							"type": "string"
						},
						{
							"internalType": "uint8",
							"name": "age",
							"type": "uint8"
						}
					],
					"name": "addLearner",
					"outputs": [],
					"stateMutability": "nonpayable",
					"type": "function"
				},
				{
					"inputs": [
						{
							"internalType": "uint8",
							"name": "_index",
							"type": "uint8"
						}
					],
					"name": "getLearner",
					"outputs": [
						{
							"components": [
								{
									"internalType": "string",
									"name": "name",
									"type": "string"
								},
								{
									"internalType": "uint8",
									"name": "age",
									"type": "uint8"
								}
							],
							"internalType": "struct SimpleStruct.Learner",
							"name": "",
							"type": "tuple"
						}
					],
					"stateMutability": "view",
					"type": "function"
				}
			],
			"devdoc": {
				"kind": "dev",
				"methods": {},
				"version": 1
			},
			"evm": {
				"assembly": "    /* \"contracts/struct.sol\":57:530  contract SimpleStruct{... */\n  mstore(0x40, 0x80)\n  callvalue\n  dup1\n  iszero\n  tag_1\n  jumpi\n  0x00\n  dup1\n  revert\ntag_1:\n  pop\n  dataSize(sub_0)\n  dup1\n  dataOffset(sub_0)\n  0x00\n  codecopy\n  0x00\n  return\nstop\n\nsub_0: assembly {\n        /* \"contracts/struct.sol\":57:530  contract SimpleStruct{... */\n      mstore(0x40, 0x80)\n      callvalue\n      dup1\n      iszero\n      tag_1\n      jumpi\n      0x00\n      dup1\n      revert\n    tag_1:\n      pop\n      jumpi(tag_2, lt(calldatasize, 0x04))\n      shr(0xe0, calldataload(0x00))\n      dup1\n      0x174d39f6\n      eq\n      tag_3\n      jumpi\n      dup1\n      0xe2e68e17\n      eq\n      tag_4\n      jumpi\n    tag_2:\n      0x00\n      dup1\n      revert\n        /* \"contracts/struct.sol\":419:528  function getLearner(uint8 _index) public view returns(Learner memory){... */\n    tag_3:\n      tag_5\n      0x04\n      dup1\n      calldatasize\n      sub\n      dup2\n      add\n      swap1\n      tag_6\n      swap2\n      swap1\n      tag_7\n      jump\t// in\n    tag_6:\n      tag_8\n      jump\t// in\n    tag_5:\n      mload(0x40)\n      tag_9\n      swap2\n      swap1\n      tag_10\n      jump\t// in\n    tag_9:\n      mload(0x40)\n      dup1\n      swap2\n      sub\n      swap1\n      return\n        /* \"contracts/struct.sol\":262:413  function addLearner(uint8 _index,string memory _name,uint8 age)public{... */\n    tag_4:\n      tag_11\n      0x04\n      dup1\n      calldatasize\n      sub\n      dup2\n      add\n      swap1\n      tag_12\n      swap2\n      swap1\n      tag_13\n      jump\t// in\n    tag_12:\n      tag_14\n      jump\t// in\n    tag_11:\n      stop\n        /* \"contracts/struct.sol\":419:528  function getLearner(uint8 _index) public view returns(Learner memory){... */\n    tag_8:\n        /* \"contracts/struct.sol\":473:487  Learner memory */\n      tag_15\n      tag_16\n      jump\t// in\n    tag_15:\n        /* \"contracts/struct.sol\":505:513  learners */\n      0x00\n        /* \"contracts/struct.sol\":505:521  learners[_index] */\n      dup1\n        /* \"contracts/struct.sol\":514:520  _index */\n      dup4\n        /* \"contracts/struct.sol\":505:521  learners[_index] */\n      0xff\n      and\n      0xff\n      and\n      dup2\n      mstore\n      0x20\n      add\n      swap1\n      dup2\n      mstore\n      0x20\n      add\n      0x00\n      keccak256\n        /* \"contracts/struct.sol\":498:521  return learners[_index] */\n      mload(0x40)\n      dup1\n      0x40\n      add\n      0x40\n      mstore\n      swap1\n      dup2\n      0x00\n      dup3\n      add\n      dup1\n      sload\n      tag_18\n      swap1\n      tag_19\n      jump\t// in\n    tag_18:\n      dup1\n      0x1f\n      add\n      0x20\n      dup1\n      swap2\n      div\n      mul\n      0x20\n      add\n      mload(0x40)\n      swap1\n      dup2\n      add\n      0x40\n      mstore\n      dup1\n      swap3\n      swap2\n      swap1\n      dup2\n      dup2\n      mstore\n      0x20\n      add\n      dup3\n      dup1\n      sload\n      tag_20\n      swap1\n      tag_19\n      jump\t// in\n    tag_20:\n      dup1\n      iszero\n      tag_21\n      jumpi\n      dup1\n      0x1f\n      lt\n      tag_22\n      jumpi\n      0x0100\n      dup1\n      dup4\n      sload\n      div\n      mul\n      dup4\n      mstore\n      swap2\n      0x20\n      add\n      swap2\n      jump(tag_21)\n    tag_22:\n      dup3\n      add\n      swap2\n      swap1\n      0x00\n      mstore\n      keccak256(0x00, 0x20)\n      swap1\n    tag_23:\n      dup2\n      sload\n      dup2\n      mstore\n      swap1\n      0x01\n      add\n      swap1\n      0x20\n      add\n      dup1\n      dup4\n      gt\n      tag_23\n      jumpi\n      dup3\n      swap1\n      sub\n      0x1f\n      and\n      dup3\n      add\n      swap2\n    tag_21:\n      pop\n      pop\n      pop\n      pop\n      pop\n      dup2\n      mstore\n      0x20\n      add\n      0x01\n      dup3\n      add\n      0x00\n      swap1\n      sload\n      swap1\n      0x0100\n      exp\n      swap1\n      div\n      0xff\n      and\n      0xff\n      and\n      0xff\n      and\n      dup2\n      mstore\n      pop\n      pop\n      swap1\n      pop\n        /* \"contracts/struct.sol\":419:528  function getLearner(uint8 _index) public view returns(Learner memory){... */\n      swap2\n      swap1\n      pop\n      jump\t// out\n        /* \"contracts/struct.sol\":262:413  function addLearner(uint8 _index,string memory _name,uint8 age)public{... */\n    tag_14:\n        /* \"contracts/struct.sol\":365:370  _name */\n      dup2\n        /* \"contracts/struct.sol\":341:349  learners */\n      0x00\n        /* \"contracts/struct.sol\":341:357  learners[_index] */\n      dup1\n        /* \"contracts/struct.sol\":350:356  _index */\n      dup6\n        /* \"contracts/struct.sol\":341:357  learners[_index] */\n      0xff\n      and\n      0xff\n      and\n      dup2\n      mstore\n      0x20\n      add\n      swap1\n      dup2\n      mstore\n      0x20\n      add\n      0x00\n      keccak256\n        /* \"contracts/struct.sol\":341:362  learners[_index].name */\n      0x00\n      add\n        /* \"contracts/struct.sol\":341:370  learners[_index].name = _name */\n      swap1\n      dup2\n      tag_25\n      swap2\n      swap1\n      tag_26\n      jump\t// in\n    tag_25:\n      pop\n        /* \"contracts/struct.sol\":403:406  age */\n      dup1\n        /* \"contracts/struct.sol\":380:388  learners */\n      0x00\n        /* \"contracts/struct.sol\":380:396  learners[_index] */\n      dup1\n        /* \"contracts/struct.sol\":389:395  _index */\n      dup6\n        /* \"contracts/struct.sol\":380:396  learners[_index] */\n      0xff\n      and\n      0xff\n      and\n      dup2\n      mstore\n      0x20\n      add\n      swap1\n      dup2\n      mstore\n      0x20\n      add\n      0x00\n      keccak256\n        /* \"contracts/struct.sol\":380:400  learners[_index].age */\n      0x01\n      add\n      0x00\n        /* \"contracts/struct.sol\":380:406  learners[_index].age = age */\n      0x0100\n      exp\n      dup2\n      sload\n      dup2\n      0xff\n      mul\n      not\n      and\n      swap1\n      dup4\n      0xff\n      and\n      mul\n      or\n      swap1\n      sstore\n      pop\n        /* \"contracts/struct.sol\":262:413  function addLearner(uint8 _index,string memory _name,uint8 age)public{... */\n      pop\n      pop\n      pop\n      jump\t// out\n    tag_16:\n      mload(0x40)\n      dup1\n      0x40\n      add\n      0x40\n      mstore\n      dup1\n      0x60\n      dup2\n      mstore\n      0x20\n      add\n      and(0xff, 0x00)\n      dup2\n      mstore\n      pop\n      swap1\n      jump\t// out\n        /* \"#utility.yul\":7:82   */\n    tag_27:\n        /* \"#utility.yul\":40:46   */\n      0x00\n        /* \"#utility.yul\":73:75   */\n      0x40\n        /* \"#utility.yul\":67:76   */\n      mload\n        /* \"#utility.yul\":57:76   */\n      swap1\n      pop\n        /* \"#utility.yul\":7:82   */\n      swap1\n      jump\t// out\n        /* \"#utility.yul\":88:205   */\n    tag_28:\n        /* \"#utility.yul\":197:198   */\n      0x00\n        /* \"#utility.yul\":194:195   */\n      dup1\n        /* \"#utility.yul\":187:199   */\n      revert\n        /* \"#utility.yul\":211:328   */\n    tag_29:\n        /* \"#utility.yul\":320:321   */\n      0x00\n        /* \"#utility.yul\":317:318   */\n      dup1\n        /* \"#utility.yul\":310:322   */\n      revert\n        /* \"#utility.yul\":334:420   */\n    tag_30:\n        /* \"#utility.yul\":369:376   */\n      0x00\n        /* \"#utility.yul\":409:413   */\n      0xff\n        /* \"#utility.yul\":402:407   */\n      dup3\n        /* \"#utility.yul\":398:414   */\n      and\n        /* \"#utility.yul\":387:414   */\n      swap1\n      pop\n        /* \"#utility.yul\":334:420   */\n      swap2\n      swap1\n      pop\n      jump\t// out\n        /* \"#utility.yul\":426:544   */\n    tag_31:\n        /* \"#utility.yul\":497:519   */\n      tag_72\n        /* \"#utility.yul\":513:518   */\n      dup2\n        /* \"#utility.yul\":497:519   */\n      tag_30\n      jump\t// in\n    tag_72:\n        /* \"#utility.yul\":490:495   */\n      dup2\n        /* \"#utility.yul\":487:520   */\n      eq\n        /* \"#utility.yul\":477:538   */\n      tag_73\n      jumpi\n        /* \"#utility.yul\":534:535   */\n      0x00\n        /* \"#utility.yul\":531:532   */\n      dup1\n        /* \"#utility.yul\":524:536   */\n      revert\n        /* \"#utility.yul\":477:538   */\n    tag_73:\n        /* \"#utility.yul\":426:544   */\n      pop\n      jump\t// out\n        /* \"#utility.yul\":550:685   */\n    tag_32:\n        /* \"#utility.yul\":594:599   */\n      0x00\n        /* \"#utility.yul\":632:638   */\n      dup2\n        /* \"#utility.yul\":619:639   */\n      calldataload\n        /* \"#utility.yul\":610:639   */\n      swap1\n      pop\n        /* \"#utility.yul\":648:679   */\n      tag_75\n        /* \"#utility.yul\":673:678   */\n      dup2\n        /* \"#utility.yul\":648:679   */\n      tag_31\n      jump\t// in\n    tag_75:\n        /* \"#utility.yul\":550:685   */\n      swap3\n      swap2\n      pop\n      pop\n      jump\t// out\n        /* \"#utility.yul\":691:1016   */\n    tag_7:\n        /* \"#utility.yul\":748:754   */\n      0x00\n        /* \"#utility.yul\":797:799   */\n      0x20\n        /* \"#utility.yul\":785:794   */\n      dup3\n        /* \"#utility.yul\":776:783   */\n      dup5\n        /* \"#utility.yul\":772:795   */\n      sub\n        /* \"#utility.yul\":768:800   */\n      slt\n        /* \"#utility.yul\":765:884   */\n      iszero\n      tag_77\n      jumpi\n        /* \"#utility.yul\":803:882   */\n      tag_78\n      tag_28\n      jump\t// in\n    tag_78:\n        /* \"#utility.yul\":765:884   */\n    tag_77:\n        /* \"#utility.yul\":923:924   */\n      0x00\n        /* \"#utility.yul\":948:999   */\n      tag_79\n        /* \"#utility.yul\":991:998   */\n      dup5\n        /* \"#utility.yul\":982:988   */\n      dup3\n        /* \"#utility.yul\":971:980   */\n      dup6\n        /* \"#utility.yul\":967:989   */\n      add\n        /* \"#utility.yul\":948:999   */\n      tag_32\n      jump\t// in\n    tag_79:\n        /* \"#utility.yul\":938:999   */\n      swap2\n      pop\n        /* \"#utility.yul\":894:1009   */\n      pop\n        /* \"#utility.yul\":691:1016   */\n      swap3\n      swap2\n      pop\n      pop\n      jump\t// out\n        /* \"#utility.yul\":1022:1121   */\n    tag_33:\n        /* \"#utility.yul\":1074:1080   */\n      0x00\n        /* \"#utility.yul\":1108:1113   */\n      dup2\n        /* \"#utility.yul\":1102:1114   */\n      mload\n        /* \"#utility.yul\":1092:1114   */\n      swap1\n      pop\n        /* \"#utility.yul\":1022:1121   */\n      swap2\n      swap1\n      pop\n      jump\t// out\n        /* \"#utility.yul\":1127:1286   */\n    tag_34:\n        /* \"#utility.yul\":1201:1212   */\n      0x00\n        /* \"#utility.yul\":1235:1241   */\n      dup3\n        /* \"#utility.yul\":1230:1233   */\n      dup3\n        /* \"#utility.yul\":1223:1242   */\n      mstore\n        /* \"#utility.yul\":1275:1279   */\n      0x20\n        /* \"#utility.yul\":1270:1273   */\n      dup3\n        /* \"#utility.yul\":1266:1280   */\n      add\n        /* \"#utility.yul\":1251:1280   */\n      swap1\n      pop\n        /* \"#utility.yul\":1127:1286   */\n      swap3\n      swap2\n      pop\n      pop\n      jump\t// out\n        /* \"#utility.yul\":1292:1538   */\n    tag_35:\n        /* \"#utility.yul\":1373:1374   */\n      0x00\n        /* \"#utility.yul\":1383:1496   */\n    tag_83:\n        /* \"#utility.yul\":1397:1403   */\n      dup4\n        /* \"#utility.yul\":1394:1395   */\n      dup2\n        /* \"#utility.yul\":1391:1404   */\n      lt\n        /* \"#utility.yul\":1383:1496   */\n      iszero\n      tag_85\n      jumpi\n        /* \"#utility.yul\":1482:1483   */\n      dup1\n        /* \"#utility.yul\":1477:1480   */\n      dup3\n        /* \"#utility.yul\":1473:1484   */\n      add\n        /* \"#utility.yul\":1467:1485   */\n      mload\n        /* \"#utility.yul\":1463:1464   */\n      dup2\n        /* \"#utility.yul\":1458:1461   */\n      dup5\n        /* \"#utility.yul\":1454:1465   */\n      add\n        /* \"#utility.yul\":1447:1486   */\n      mstore\n        /* \"#utility.yul\":1419:1421   */\n      0x20\n        /* \"#utility.yul\":1416:1417   */\n      dup2\n        /* \"#utility.yul\":1412:1422   */\n      add\n        /* \"#utility.yul\":1407:1422   */\n      swap1\n      pop\n        /* \"#utility.yul\":1383:1496   */\n      jump(tag_83)\n    tag_85:\n        /* \"#utility.yul\":1530:1531   */\n      0x00\n        /* \"#utility.yul\":1521:1527   */\n      dup5\n        /* \"#utility.yul\":1516:1519   */\n      dup5\n        /* \"#utility.yul\":1512:1528   */\n      add\n        /* \"#utility.yul\":1505:1532   */\n      mstore\n        /* \"#utility.yul\":1354:1538   */\n      pop\n        /* \"#utility.yul\":1292:1538   */\n      pop\n      pop\n      pop\n      jump\t// out\n        /* \"#utility.yul\":1544:1646   */\n    tag_36:\n        /* \"#utility.yul\":1585:1591   */\n      0x00\n        /* \"#utility.yul\":1636:1638   */\n      0x1f\n        /* \"#utility.yul\":1632:1639   */\n      not\n        /* \"#utility.yul\":1627:1629   */\n      0x1f\n        /* \"#utility.yul\":1620:1625   */\n      dup4\n        /* \"#utility.yul\":1616:1630   */\n      add\n        /* \"#utility.yul\":1612:1640   */\n      and\n        /* \"#utility.yul\":1602:1640   */\n      swap1\n      pop\n        /* \"#utility.yul\":1544:1646   */\n      swap2\n      swap1\n      pop\n      jump\t// out\n        /* \"#utility.yul\":1652:2009   */\n    tag_37:\n        /* \"#utility.yul\":1730:1733   */\n      0x00\n        /* \"#utility.yul\":1758:1797   */\n      tag_88\n        /* \"#utility.yul\":1791:1796   */\n      dup3\n        /* \"#utility.yul\":1758:1797   */\n      tag_33\n      jump\t// in\n    tag_88:\n        /* \"#utility.yul\":1813:1874   */\n      tag_89\n        /* \"#utility.yul\":1867:1873   */\n      dup2\n        /* \"#utility.yul\":1862:1865   */\n      dup6\n        /* \"#utility.yul\":1813:1874   */\n      tag_34\n      jump\t// in\n    tag_89:\n        /* \"#utility.yul\":1806:1874   */\n      swap4\n      pop\n        /* \"#utility.yul\":1883:1948   */\n      tag_90\n        /* \"#utility.yul\":1941:1947   */\n      dup2\n        /* \"#utility.yul\":1936:1939   */\n      dup6\n        /* \"#utility.yul\":1929:1933   */\n      0x20\n        /* \"#utility.yul\":1922:1927   */\n      dup7\n        /* \"#utility.yul\":1918:1934   */\n      add\n        /* \"#utility.yul\":1883:1948   */\n      tag_35\n      jump\t// in\n    tag_90:\n        /* \"#utility.yul\":1973:2002   */\n      tag_91\n        /* \"#utility.yul\":1995:2001   */\n      dup2\n        /* \"#utility.yul\":1973:2002   */\n      tag_36\n      jump\t// in\n    tag_91:\n        /* \"#utility.yul\":1968:1971   */\n      dup5\n        /* \"#utility.yul\":1964:2003   */\n      add\n        /* \"#utility.yul\":1957:2003   */\n      swap2\n      pop\n        /* \"#utility.yul\":1734:2009   */\n      pop\n        /* \"#utility.yul\":1652:2009   */\n      swap3\n      swap2\n      pop\n      pop\n      jump\t// out\n        /* \"#utility.yul\":2015:2117   */\n    tag_38:\n        /* \"#utility.yul\":2088:2110   */\n      tag_93\n        /* \"#utility.yul\":2104:2109   */\n      dup2\n        /* \"#utility.yul\":2088:2110   */\n      tag_30\n      jump\t// in\n    tag_93:\n        /* \"#utility.yul\":2083:2086   */\n      dup3\n        /* \"#utility.yul\":2076:2111   */\n      mstore\n        /* \"#utility.yul\":2015:2117   */\n      pop\n      pop\n      jump\t// out\n        /* \"#utility.yul\":2189:2784   */\n    tag_39:\n        /* \"#utility.yul\":2302:2305   */\n      0x00\n        /* \"#utility.yul\":2338:2342   */\n      0x40\n        /* \"#utility.yul\":2333:2336   */\n      dup4\n        /* \"#utility.yul\":2329:2343   */\n      add\n        /* \"#utility.yul\":2425:2429   */\n      0x00\n        /* \"#utility.yul\":2418:2423   */\n      dup4\n        /* \"#utility.yul\":2414:2430   */\n      add\n        /* \"#utility.yul\":2408:2431   */\n      mload\n        /* \"#utility.yul\":2478:2481   */\n      dup5\n        /* \"#utility.yul\":2472:2476   */\n      dup3\n        /* \"#utility.yul\":2468:2482   */\n      sub\n        /* \"#utility.yul\":2461:2465   */\n      0x00\n        /* \"#utility.yul\":2456:2459   */\n      dup7\n        /* \"#utility.yul\":2452:2466   */\n      add\n        /* \"#utility.yul\":2445:2483   */\n      mstore\n        /* \"#utility.yul\":2504:2577   */\n      tag_95\n        /* \"#utility.yul\":2572:2576   */\n      dup3\n        /* \"#utility.yul\":2558:2570   */\n      dup3\n        /* \"#utility.yul\":2504:2577   */\n      tag_37\n      jump\t// in\n    tag_95:\n        /* \"#utility.yul\":2496:2577   */\n      swap2\n      pop\n        /* \"#utility.yul\":2353:2588   */\n      pop\n        /* \"#utility.yul\":2669:2673   */\n      0x20\n        /* \"#utility.yul\":2662:2667   */\n      dup4\n        /* \"#utility.yul\":2658:2674   */\n      add\n        /* \"#utility.yul\":2652:2675   */\n      mload\n        /* \"#utility.yul\":2688:2747   */\n      tag_96\n        /* \"#utility.yul\":2741:2745   */\n      0x20\n        /* \"#utility.yul\":2736:2739   */\n      dup7\n        /* \"#utility.yul\":2732:2746   */\n      add\n        /* \"#utility.yul\":2718:2730   */\n      dup3\n        /* \"#utility.yul\":2688:2747   */\n      tag_38\n      jump\t// in\n    tag_96:\n        /* \"#utility.yul\":2598:2757   */\n      pop\n        /* \"#utility.yul\":2774:2778   */\n      dup1\n        /* \"#utility.yul\":2767:2778   */\n      swap2\n      pop\n        /* \"#utility.yul\":2307:2784   */\n      pop\n        /* \"#utility.yul\":2189:2784   */\n      swap3\n      swap2\n      pop\n      pop\n      jump\t// out\n        /* \"#utility.yul\":2790:3151   */\n    tag_10:\n        /* \"#utility.yul\":2927:2931   */\n      0x00\n        /* \"#utility.yul\":2965:2967   */\n      0x20\n        /* \"#utility.yul\":2954:2963   */\n      dup3\n        /* \"#utility.yul\":2950:2968   */\n      add\n        /* \"#utility.yul\":2942:2968   */\n      swap1\n      pop\n        /* \"#utility.yul\":3014:3023   */\n      dup2\n        /* \"#utility.yul\":3008:3012   */\n      dup2\n        /* \"#utility.yul\":3004:3024   */\n      sub\n        /* \"#utility.yul\":3000:3001   */\n      0x00\n        /* \"#utility.yul\":2989:2998   */\n      dup4\n        /* \"#utility.yul\":2985:3002   */\n      add\n        /* \"#utility.yul\":2978:3025   */\n      mstore\n        /* \"#utility.yul\":3042:3144   */\n      tag_98\n        /* \"#utility.yul\":3139:3143   */\n      dup2\n        /* \"#utility.yul\":3130:3136   */\n      dup5\n        /* \"#utility.yul\":3042:3144   */\n      tag_39\n      jump\t// in\n    tag_98:\n        /* \"#utility.yul\":3034:3144   */\n      swap1\n      pop\n        /* \"#utility.yul\":2790:3151   */\n      swap3\n      swap2\n      pop\n      pop\n      jump\t// out\n        /* \"#utility.yul\":3157:3274   */\n    tag_40:\n        /* \"#utility.yul\":3266:3267   */\n      0x00\n        /* \"#utility.yul\":3263:3264   */\n      dup1\n        /* \"#utility.yul\":3256:3268   */\n      revert\n        /* \"#utility.yul\":3280:3397   */\n    tag_41:\n        /* \"#utility.yul\":3389:3390   */\n      0x00\n        /* \"#utility.yul\":3386:3387   */\n      dup1\n        /* \"#utility.yul\":3379:3391   */\n      revert\n        /* \"#utility.yul\":3403:3583   */\n    tag_42:\n        /* \"#utility.yul\":3451:3528   */\n      0x4e487b7100000000000000000000000000000000000000000000000000000000\n        /* \"#utility.yul\":3448:3449   */\n      0x00\n        /* \"#utility.yul\":3441:3529   */\n      mstore\n        /* \"#utility.yul\":3548:3552   */\n      0x41\n        /* \"#utility.yul\":3545:3546   */\n      0x04\n        /* \"#utility.yul\":3538:3553   */\n      mstore\n        /* \"#utility.yul\":3572:3576   */\n      0x24\n        /* \"#utility.yul\":3569:3570   */\n      0x00\n        /* \"#utility.yul\":3562:3577   */\n      revert\n        /* \"#utility.yul\":3589:3870   */\n    tag_43:\n        /* \"#utility.yul\":3672:3699   */\n      tag_103\n        /* \"#utility.yul\":3694:3698   */\n      dup3\n        /* \"#utility.yul\":3672:3699   */\n      tag_36\n      jump\t// in\n    tag_103:\n        /* \"#utility.yul\":3664:3670   */\n      dup2\n        /* \"#utility.yul\":3660:3700   */\n      add\n        /* \"#utility.yul\":3802:3808   */\n      dup2\n        /* \"#utility.yul\":3790:3800   */\n      dup2\n        /* \"#utility.yul\":3787:3809   */\n      lt\n        /* \"#utility.yul\":3766:3784   */\n      0xffffffffffffffff\n        /* \"#utility.yul\":3754:3764   */\n      dup3\n        /* \"#utility.yul\":3751:3785   */\n      gt\n        /* \"#utility.yul\":3748:3810   */\n      or\n        /* \"#utility.yul\":3745:3833   */\n      iszero\n      tag_104\n      jumpi\n        /* \"#utility.yul\":3813:3831   */\n      tag_105\n      tag_42\n      jump\t// in\n    tag_105:\n        /* \"#utility.yul\":3745:3833   */\n    tag_104:\n        /* \"#utility.yul\":3853:3863   */\n      dup1\n        /* \"#utility.yul\":3849:3851   */\n      0x40\n        /* \"#utility.yul\":3842:3864   */\n      mstore\n        /* \"#utility.yul\":3632:3870   */\n      pop\n        /* \"#utility.yul\":3589:3870   */\n      pop\n      pop\n      jump\t// out\n        /* \"#utility.yul\":3876:4005   */\n    tag_44:\n        /* \"#utility.yul\":3910:3916   */\n      0x00\n        /* \"#utility.yul\":3937:3957   */\n      tag_107\n      tag_27\n      jump\t// in\n    tag_107:\n        /* \"#utility.yul\":3927:3957   */\n      swap1\n      pop\n        /* \"#utility.yul\":3966:3999   */\n      tag_108\n        /* \"#utility.yul\":3994:3998   */\n      dup3\n        /* \"#utility.yul\":3986:3992   */\n      dup3\n        /* \"#utility.yul\":3966:3999   */\n      tag_43\n      jump\t// in\n    tag_108:\n        /* \"#utility.yul\":3876:4005   */\n      swap2\n      swap1\n      pop\n      jump\t// out\n        /* \"#utility.yul\":4011:4319   */\n    tag_45:\n        /* \"#utility.yul\":4073:4077   */\n      0x00\n        /* \"#utility.yul\":4163:4181   */\n      0xffffffffffffffff\n        /* \"#utility.yul\":4155:4161   */\n      dup3\n        /* \"#utility.yul\":4152:4182   */\n      gt\n        /* \"#utility.yul\":4149:4205   */\n      iszero\n      tag_110\n      jumpi\n        /* \"#utility.yul\":4185:4203   */\n      tag_111\n      tag_42\n      jump\t// in\n    tag_111:\n        /* \"#utility.yul\":4149:4205   */\n    tag_110:\n        /* \"#utility.yul\":4223:4252   */\n      tag_112\n        /* \"#utility.yul\":4245:4251   */\n      dup3\n        /* \"#utility.yul\":4223:4252   */\n      tag_36\n      jump\t// in\n    tag_112:\n        /* \"#utility.yul\":4215:4252   */\n      swap1\n      pop\n        /* \"#utility.yul\":4307:4311   */\n      0x20\n        /* \"#utility.yul\":4301:4305   */\n      dup2\n        /* \"#utility.yul\":4297:4312   */\n      add\n        /* \"#utility.yul\":4289:4312   */\n      swap1\n      pop\n        /* \"#utility.yul\":4011:4319   */\n      swap2\n      swap1\n      pop\n      jump\t// out\n        /* \"#utility.yul\":4325:4471   */\n    tag_46:\n        /* \"#utility.yul\":4422:4428   */\n      dup3\n        /* \"#utility.yul\":4417:4420   */\n      dup2\n        /* \"#utility.yul\":4412:4415   */\n      dup4\n        /* \"#utility.yul\":4399:4429   */\n      calldatacopy\n        /* \"#utility.yul\":4463:4464   */\n      0x00\n        /* \"#utility.yul\":4454:4460   */\n      dup4\n        /* \"#utility.yul\":4449:4452   */\n      dup4\n        /* \"#utility.yul\":4445:4461   */\n      add\n        /* \"#utility.yul\":4438:4465   */\n      mstore\n        /* \"#utility.yul\":4325:4471   */\n      pop\n      pop\n      pop\n      jump\t// out\n        /* \"#utility.yul\":4477:4902   */\n    tag_47:\n        /* \"#utility.yul\":4555:4560   */\n      0x00\n        /* \"#utility.yul\":4580:4646   */\n      tag_115\n        /* \"#utility.yul\":4596:4645   */\n      tag_116\n        /* \"#utility.yul\":4638:4644   */\n      dup5\n        /* \"#utility.yul\":4596:4645   */\n      tag_45\n      jump\t// in\n    tag_116:\n        /* \"#utility.yul\":4580:4646   */\n      tag_44\n      jump\t// in\n    tag_115:\n        /* \"#utility.yul\":4571:4646   */\n      swap1\n      pop\n        /* \"#utility.yul\":4669:4675   */\n      dup3\n        /* \"#utility.yul\":4662:4667   */\n      dup2\n        /* \"#utility.yul\":4655:4676   */\n      mstore\n        /* \"#utility.yul\":4707:4711   */\n      0x20\n        /* \"#utility.yul\":4700:4705   */\n      dup2\n        /* \"#utility.yul\":4696:4712   */\n      add\n        /* \"#utility.yul\":4745:4748   */\n      dup5\n        /* \"#utility.yul\":4736:4742   */\n      dup5\n        /* \"#utility.yul\":4731:4734   */\n      dup5\n        /* \"#utility.yul\":4727:4743   */\n      add\n        /* \"#utility.yul\":4724:4749   */\n      gt\n        /* \"#utility.yul\":4721:4833   */\n      iszero\n      tag_117\n      jumpi\n        /* \"#utility.yul\":4752:4831   */\n      tag_118\n      tag_41\n      jump\t// in\n    tag_118:\n        /* \"#utility.yul\":4721:4833   */\n    tag_117:\n        /* \"#utility.yul\":4842:4896   */\n      tag_119\n        /* \"#utility.yul\":4889:4895   */\n      dup5\n        /* \"#utility.yul\":4884:4887   */\n      dup3\n        /* \"#utility.yul\":4879:4882   */\n      dup6\n        /* \"#utility.yul\":4842:4896   */\n      tag_46\n      jump\t// in\n    tag_119:\n        /* \"#utility.yul\":4561:4902   */\n      pop\n        /* \"#utility.yul\":4477:4902   */\n      swap4\n      swap3\n      pop\n      pop\n      pop\n      jump\t// out\n        /* \"#utility.yul\":4922:5262   */\n    tag_48:\n        /* \"#utility.yul\":4978:4983   */\n      0x00\n        /* \"#utility.yul\":5027:5030   */\n      dup3\n        /* \"#utility.yul\":5020:5024   */\n      0x1f\n        /* \"#utility.yul\":5012:5018   */\n      dup4\n        /* \"#utility.yul\":5008:5025   */\n      add\n        /* \"#utility.yul\":5004:5031   */\n      slt\n        /* \"#utility.yul\":4994:5116   */\n      tag_121\n      jumpi\n        /* \"#utility.yul\":5035:5114   */\n      tag_122\n      tag_40\n      jump\t// in\n    tag_122:\n        /* \"#utility.yul\":4994:5116   */\n    tag_121:\n        /* \"#utility.yul\":5152:5158   */\n      dup2\n        /* \"#utility.yul\":5139:5159   */\n      calldataload\n        /* \"#utility.yul\":5177:5256   */\n      tag_123\n        /* \"#utility.yul\":5252:5255   */\n      dup5\n        /* \"#utility.yul\":5244:5250   */\n      dup3\n        /* \"#utility.yul\":5237:5241   */\n      0x20\n        /* \"#utility.yul\":5229:5235   */\n      dup7\n        /* \"#utility.yul\":5225:5242   */\n      add\n        /* \"#utility.yul\":5177:5256   */\n      tag_47\n      jump\t// in\n    tag_123:\n        /* \"#utility.yul\":5168:5256   */\n      swap2\n      pop\n        /* \"#utility.yul\":4984:5262   */\n      pop\n        /* \"#utility.yul\":4922:5262   */\n      swap3\n      swap2\n      pop\n      pop\n      jump\t// out\n        /* \"#utility.yul\":5268:6059   */\n    tag_13:\n        /* \"#utility.yul\":5351:5357   */\n      0x00\n        /* \"#utility.yul\":5359:5365   */\n      dup1\n        /* \"#utility.yul\":5367:5373   */\n      0x00\n        /* \"#utility.yul\":5416:5418   */\n      0x60\n        /* \"#utility.yul\":5404:5413   */\n      dup5\n        /* \"#utility.yul\":5395:5402   */\n      dup7\n        /* \"#utility.yul\":5391:5414   */\n      sub\n        /* \"#utility.yul\":5387:5419   */\n      slt\n        /* \"#utility.yul\":5384:5503   */\n      iszero\n      tag_125\n      jumpi\n        /* \"#utility.yul\":5422:5501   */\n      tag_126\n      tag_28\n      jump\t// in\n    tag_126:\n        /* \"#utility.yul\":5384:5503   */\n    tag_125:\n        /* \"#utility.yul\":5542:5543   */\n      0x00\n        /* \"#utility.yul\":5567:5618   */\n      tag_127\n        /* \"#utility.yul\":5610:5617   */\n      dup7\n        /* \"#utility.yul\":5601:5607   */\n      dup3\n        /* \"#utility.yul\":5590:5599   */\n      dup8\n        /* \"#utility.yul\":5586:5608   */\n      add\n        /* \"#utility.yul\":5567:5618   */\n      tag_32\n      jump\t// in\n    tag_127:\n        /* \"#utility.yul\":5557:5618   */\n      swap4\n      pop\n        /* \"#utility.yul\":5513:5628   */\n      pop\n        /* \"#utility.yul\":5695:5697   */\n      0x20\n        /* \"#utility.yul\":5684:5693   */\n      dup5\n        /* \"#utility.yul\":5680:5698   */\n      add\n        /* \"#utility.yul\":5667:5699   */\n      calldataload\n        /* \"#utility.yul\":5726:5744   */\n      0xffffffffffffffff\n        /* \"#utility.yul\":5718:5724   */\n      dup2\n        /* \"#utility.yul\":5715:5745   */\n      gt\n        /* \"#utility.yul\":5712:5829   */\n      iszero\n      tag_128\n      jumpi\n        /* \"#utility.yul\":5748:5827   */\n      tag_129\n      tag_29\n      jump\t// in\n    tag_129:\n        /* \"#utility.yul\":5712:5829   */\n    tag_128:\n        /* \"#utility.yul\":5853:5916   */\n      tag_130\n        /* \"#utility.yul\":5908:5915   */\n      dup7\n        /* \"#utility.yul\":5899:5905   */\n      dup3\n        /* \"#utility.yul\":5888:5897   */\n      dup8\n        /* \"#utility.yul\":5884:5906   */\n      add\n        /* \"#utility.yul\":5853:5916   */\n      tag_48\n      jump\t// in\n    tag_130:\n        /* \"#utility.yul\":5843:5916   */\n      swap3\n      pop\n        /* \"#utility.yul\":5638:5926   */\n      pop\n        /* \"#utility.yul\":5965:5967   */\n      0x40\n        /* \"#utility.yul\":5991:6042   */\n      tag_131\n        /* \"#utility.yul\":6034:6041   */\n      dup7\n        /* \"#utility.yul\":6025:6031   */\n      dup3\n        /* \"#utility.yul\":6014:6023   */\n      dup8\n        /* \"#utility.yul\":6010:6032   */\n      add\n        /* \"#utility.yul\":5991:6042   */\n      tag_32\n      jump\t// in\n    tag_131:\n        /* \"#utility.yul\":5981:6042   */\n      swap2\n      pop\n        /* \"#utility.yul\":5936:6052   */\n      pop\n        /* \"#utility.yul\":5268:6059   */\n      swap3\n      pop\n      swap3\n      pop\n      swap3\n      jump\t// out\n        /* \"#utility.yul\":6065:6245   */\n    tag_49:\n        /* \"#utility.yul\":6113:6190   */\n      0x4e487b7100000000000000000000000000000000000000000000000000000000\n        /* \"#utility.yul\":6110:6111   */\n      0x00\n        /* \"#utility.yul\":6103:6191   */\n      mstore\n        /* \"#utility.yul\":6210:6214   */\n      0x22\n        /* \"#utility.yul\":6207:6208   */\n      0x04\n        /* \"#utility.yul\":6200:6215   */\n      mstore\n        /* \"#utility.yul\":6234:6238   */\n      0x24\n        /* \"#utility.yul\":6231:6232   */\n      0x00\n        /* \"#utility.yul\":6224:6239   */\n      revert\n        /* \"#utility.yul\":6251:6571   */\n    tag_19:\n        /* \"#utility.yul\":6295:6301   */\n      0x00\n        /* \"#utility.yul\":6332:6333   */\n      0x02\n        /* \"#utility.yul\":6326:6330   */\n      dup3\n        /* \"#utility.yul\":6322:6334   */\n      div\n        /* \"#utility.yul\":6312:6334   */\n      swap1\n      pop\n        /* \"#utility.yul\":6379:6380   */\n      0x01\n        /* \"#utility.yul\":6373:6377   */\n      dup3\n        /* \"#utility.yul\":6369:6381   */\n      and\n        /* \"#utility.yul\":6400:6418   */\n      dup1\n        /* \"#utility.yul\":6390:6471   */\n      tag_134\n      jumpi\n        /* \"#utility.yul\":6456:6460   */\n      0x7f\n        /* \"#utility.yul\":6448:6454   */\n      dup3\n        /* \"#utility.yul\":6444:6461   */\n      and\n        /* \"#utility.yul\":6434:6461   */\n      swap2\n      pop\n        /* \"#utility.yul\":6390:6471   */\n    tag_134:\n        /* \"#utility.yul\":6518:6520   */\n      0x20\n        /* \"#utility.yul\":6510:6516   */\n      dup3\n        /* \"#utility.yul\":6507:6521   */\n      lt\n        /* \"#utility.yul\":6487:6505   */\n      dup2\n        /* \"#utility.yul\":6484:6522   */\n      sub\n        /* \"#utility.yul\":6481:6565   */\n      tag_135\n      jumpi\n        /* \"#utility.yul\":6537:6555   */\n      tag_136\n      tag_49\n      jump\t// in\n    tag_136:\n        /* \"#utility.yul\":6481:6565   */\n    tag_135:\n        /* \"#utility.yul\":6302:6571   */\n      pop\n        /* \"#utility.yul\":6251:6571   */\n      swap2\n      swap1\n      pop\n      jump\t// out\n        /* \"#utility.yul\":6577:6718   */\n    tag_50:\n        /* \"#utility.yul\":6626:6630   */\n      0x00\n        /* \"#utility.yul\":6649:6652   */\n      dup2\n        /* \"#utility.yul\":6641:6652   */\n      swap1\n      pop\n        /* \"#utility.yul\":6672:6675   */\n      dup2\n        /* \"#utility.yul\":6669:6670   */\n      0x00\n        /* \"#utility.yul\":6662:6676   */\n      mstore\n        /* \"#utility.yul\":6706:6710   */\n      0x20\n        /* \"#utility.yul\":6703:6704   */\n      0x00\n        /* \"#utility.yul\":6693:6711   */\n      keccak256\n        /* \"#utility.yul\":6685:6711   */\n      swap1\n      pop\n        /* \"#utility.yul\":6577:6718   */\n      swap2\n      swap1\n      pop\n      jump\t// out\n        /* \"#utility.yul\":6724:6817   */\n    tag_51:\n        /* \"#utility.yul\":6761:6767   */\n      0x00\n        /* \"#utility.yul\":6808:6810   */\n      0x20\n        /* \"#utility.yul\":6803:6805   */\n      0x1f\n        /* \"#utility.yul\":6796:6801   */\n      dup4\n        /* \"#utility.yul\":6792:6806   */\n      add\n        /* \"#utility.yul\":6788:6811   */\n      div\n        /* \"#utility.yul\":6778:6811   */\n      swap1\n      pop\n        /* \"#utility.yul\":6724:6817   */\n      swap2\n      swap1\n      pop\n      jump\t// out\n        /* \"#utility.yul\":6823:6930   */\n    tag_52:\n        /* \"#utility.yul\":6867:6875   */\n      0x00\n        /* \"#utility.yul\":6917:6922   */\n      dup3\n        /* \"#utility.yul\":6911:6915   */\n      dup3\n        /* \"#utility.yul\":6907:6923   */\n      shl\n        /* \"#utility.yul\":6886:6923   */\n      swap1\n      pop\n        /* \"#utility.yul\":6823:6930   */\n      swap3\n      swap2\n      pop\n      pop\n      jump\t// out\n        /* \"#utility.yul\":6936:7329   */\n    tag_53:\n        /* \"#utility.yul\":7005:7011   */\n      0x00\n        /* \"#utility.yul\":7055:7056   */\n      0x08\n        /* \"#utility.yul\":7043:7053   */\n      dup4\n        /* \"#utility.yul\":7039:7057   */\n      mul\n        /* \"#utility.yul\":7078:7175   */\n      tag_141\n        /* \"#utility.yul\":7108:7174   */\n      0xffffffffffffffffffffffffffffffffffffffffffffffffffffffffffffffff\n        /* \"#utility.yul\":7097:7106   */\n      dup3\n        /* \"#utility.yul\":7078:7175   */\n      tag_52\n      jump\t// in\n    tag_141:\n        /* \"#utility.yul\":7196:7235   */\n      tag_142\n        /* \"#utility.yul\":7226:7234   */\n      dup7\n        /* \"#utility.yul\":7215:7224   */\n      dup4\n        /* \"#utility.yul\":7196:7235   */\n      tag_52\n      jump\t// in\n    tag_142:\n        /* \"#utility.yul\":7184:7235   */\n      swap6\n      pop\n        /* \"#utility.yul\":7268:7272   */\n      dup1\n        /* \"#utility.yul\":7264:7273   */\n      not\n        /* \"#utility.yul\":7257:7262   */\n      dup5\n        /* \"#utility.yul\":7253:7274   */\n      and\n        /* \"#utility.yul\":7244:7274   */\n      swap4\n      pop\n        /* \"#utility.yul\":7317:7321   */\n      dup1\n        /* \"#utility.yul\":7307:7315   */\n      dup7\n        /* \"#utility.yul\":7303:7322   */\n      and\n        /* \"#utility.yul\":7296:7301   */\n      dup5\n        /* \"#utility.yul\":7293:7323   */\n      or\n        /* \"#utility.yul\":7283:7323   */\n      swap3\n      pop\n        /* \"#utility.yul\":7012:7329   */\n      pop\n      pop\n        /* \"#utility.yul\":6936:7329   */\n      swap4\n      swap3\n      pop\n      pop\n      pop\n      jump\t// out\n        /* \"#utility.yul\":7335:7412   */\n    tag_54:\n        /* \"#utility.yul\":7372:7379   */\n      0x00\n        /* \"#utility.yul\":7401:7406   */\n      dup2\n        /* \"#utility.yul\":7390:7406   */\n      swap1\n      pop\n        /* \"#utility.yul\":7335:7412   */\n      swap2\n      swap1\n      pop\n      jump\t// out\n        /* \"#utility.yul\":7418:7478   */\n    tag_55:\n        /* \"#utility.yul\":7446:7449   */\n      0x00\n        /* \"#utility.yul\":7467:7472   */\n      dup2\n        /* \"#utility.yul\":7460:7472   */\n      swap1\n      pop\n        /* \"#utility.yul\":7418:7478   */\n      swap2\n      swap1\n      pop\n      jump\t// out\n        /* \"#utility.yul\":7484:7626   */\n    tag_56:\n        /* \"#utility.yul\":7534:7543   */\n      0x00\n        /* \"#utility.yul\":7567:7620   */\n      tag_146\n        /* \"#utility.yul\":7585:7619   */\n      tag_147\n        /* \"#utility.yul\":7594:7618   */\n      tag_148\n        /* \"#utility.yul\":7612:7617   */\n      dup5\n        /* \"#utility.yul\":7594:7618   */\n      tag_54\n      jump\t// in\n    tag_148:\n        /* \"#utility.yul\":7585:7619   */\n      tag_55\n      jump\t// in\n    tag_147:\n        /* \"#utility.yul\":7567:7620   */\n      tag_54\n      jump\t// in\n    tag_146:\n        /* \"#utility.yul\":7554:7620   */\n      swap1\n      pop\n        /* \"#utility.yul\":7484:7626   */\n      swap2\n      swap1\n      pop\n      jump\t// out\n        /* \"#utility.yul\":7632:7707   */\n    tag_57:\n        /* \"#utility.yul\":7675:7678   */\n      0x00\n        /* \"#utility.yul\":7696:7701   */\n      dup2\n        /* \"#utility.yul\":7689:7701   */\n      swap1\n      pop\n        /* \"#utility.yul\":7632:7707   */\n      swap2\n      swap1\n      pop\n      jump\t// out\n        /* \"#utility.yul\":7713:7982   */\n    tag_58:\n        /* \"#utility.yul\":7823:7862   */\n      tag_151\n        /* \"#utility.yul\":7854:7861   */\n      dup4\n        /* \"#utility.yul\":7823:7862   */\n      tag_56\n      jump\t// in\n    tag_151:\n        /* \"#utility.yul\":7884:7975   */\n      tag_152\n        /* \"#utility.yul\":7933:7974   */\n      tag_153\n        /* \"#utility.yul\":7957:7973   */\n      dup3\n        /* \"#utility.yul\":7933:7974   */\n      tag_57\n      jump\t// in\n    tag_153:\n        /* \"#utility.yul\":7925:7931   */\n      dup5\n        /* \"#utility.yul\":7918:7922   */\n      dup5\n        /* \"#utility.yul\":7912:7923   */\n      sload\n        /* \"#utility.yul\":7884:7975   */\n      tag_53\n      jump\t// in\n    tag_152:\n        /* \"#utility.yul\":7878:7882   */\n      dup3\n        /* \"#utility.yul\":7871:7976   */\n      sstore\n        /* \"#utility.yul\":7789:7982   */\n      pop\n        /* \"#utility.yul\":7713:7982   */\n      pop\n      pop\n      pop\n      jump\t// out\n        /* \"#utility.yul\":7988:8061   */\n    tag_59:\n        /* \"#utility.yul\":8033:8036   */\n      0x00\n        /* \"#utility.yul\":7988:8061   */\n      swap1\n      jump\t// out\n        /* \"#utility.yul\":8067:8256   */\n    tag_60:\n        /* \"#utility.yul\":8144:8176   */\n      tag_156\n      tag_59\n      jump\t// in\n    tag_156:\n        /* \"#utility.yul\":8185:8250   */\n      tag_157\n        /* \"#utility.yul\":8243:8249   */\n      dup2\n        /* \"#utility.yul\":8235:8241   */\n      dup5\n        /* \"#utility.yul\":8229:8233   */\n      dup5\n        /* \"#utility.yul\":8185:8250   */\n      tag_58\n      jump\t// in\n    tag_157:\n        /* \"#utility.yul\":8120:8256   */\n      pop\n        /* \"#utility.yul\":8067:8256   */\n      pop\n      pop\n      jump\t// out\n        /* \"#utility.yul\":8262:8448   */\n    tag_61:\n        /* \"#utility.yul\":8322:8442   */\n    tag_159:\n        /* \"#utility.yul\":8339:8342   */\n      dup2\n        /* \"#utility.yul\":8332:8337   */\n      dup2\n        /* \"#utility.yul\":8329:8343   */\n      lt\n        /* \"#utility.yul\":8322:8442   */\n      iszero\n      tag_161\n      jumpi\n        /* \"#utility.yul\":8393:8432   */\n      tag_162\n        /* \"#utility.yul\":8430:8431   */\n      0x00\n        /* \"#utility.yul\":8423:8428   */\n      dup3\n        /* \"#utility.yul\":8393:8432   */\n      tag_60\n      jump\t// in\n    tag_162:\n        /* \"#utility.yul\":8366:8367   */\n      0x01\n        /* \"#utility.yul\":8359:8364   */\n      dup2\n        /* \"#utility.yul\":8355:8368   */\n      add\n        /* \"#utility.yul\":8346:8368   */\n      swap1\n      pop\n        /* \"#utility.yul\":8322:8442   */\n      jump(tag_159)\n    tag_161:\n        /* \"#utility.yul\":8262:8448   */\n      pop\n      pop\n      jump\t// out\n        /* \"#utility.yul\":8454:8997   */\n    tag_62:\n        /* \"#utility.yul\":8555:8557   */\n      0x1f\n        /* \"#utility.yul\":8550:8553   */\n      dup3\n        /* \"#utility.yul\":8547:8558   */\n      gt\n        /* \"#utility.yul\":8544:8990   */\n      iszero\n      tag_164\n      jumpi\n        /* \"#utility.yul\":8589:8627   */\n      tag_165\n        /* \"#utility.yul\":8621:8626   */\n      dup2\n        /* \"#utility.yul\":8589:8627   */\n      tag_50\n      jump\t// in\n    tag_165:\n        /* \"#utility.yul\":8673:8702   */\n      tag_166\n        /* \"#utility.yul\":8691:8701   */\n      dup5\n        /* \"#utility.yul\":8673:8702   */\n      tag_51\n      jump\t// in\n    tag_166:\n        /* \"#utility.yul\":8663:8671   */\n      dup2\n        /* \"#utility.yul\":8659:8703   */\n      add\n        /* \"#utility.yul\":8856:8858   */\n      0x20\n        /* \"#utility.yul\":8844:8854   */\n      dup6\n        /* \"#utility.yul\":8841:8859   */\n      lt\n        /* \"#utility.yul\":8838:8887   */\n      iszero\n      tag_167\n      jumpi\n        /* \"#utility.yul\":8877:8885   */\n      dup2\n        /* \"#utility.yul\":8862:8885   */\n      swap1\n      pop\n        /* \"#utility.yul\":8838:8887   */\n    tag_167:\n        /* \"#utility.yul\":8900:8980   */\n      tag_168\n        /* \"#utility.yul\":8956:8978   */\n      tag_169\n        /* \"#utility.yul\":8974:8977   */\n      dup6\n        /* \"#utility.yul\":8956:8978   */\n      tag_51\n      jump\t// in\n    tag_169:\n        /* \"#utility.yul\":8946:8954   */\n      dup4\n        /* \"#utility.yul\":8942:8979   */\n      add\n        /* \"#utility.yul\":8929:8940   */\n      dup3\n        /* \"#utility.yul\":8900:8980   */\n      tag_61\n      jump\t// in\n    tag_168:\n        /* \"#utility.yul\":8559:8990   */\n      pop\n      pop\n        /* \"#utility.yul\":8544:8990   */\n    tag_164:\n        /* \"#utility.yul\":8454:8997   */\n      pop\n      pop\n      pop\n      jump\t// out\n        /* \"#utility.yul\":9003:9120   */\n    tag_63:\n        /* \"#utility.yul\":9057:9065   */\n      0x00\n        /* \"#utility.yul\":9107:9112   */\n      dup3\n        /* \"#utility.yul\":9101:9105   */\n      dup3\n        /* \"#utility.yul\":9097:9113   */\n      shr\n        /* \"#utility.yul\":9076:9113   */\n      swap1\n      pop\n        /* \"#utility.yul\":9003:9120   */\n      swap3\n      swap2\n      pop\n      pop\n      jump\t// out\n        /* \"#utility.yul\":9126:9295   */\n    tag_64:\n        /* \"#utility.yul\":9170:9176   */\n      0x00\n        /* \"#utility.yul\":9203:9254   */\n      tag_172\n        /* \"#utility.yul\":9251:9252   */\n      0x00\n        /* \"#utility.yul\":9247:9253   */\n      not\n        /* \"#utility.yul\":9239:9244   */\n      dup5\n        /* \"#utility.yul\":9236:9237   */\n      0x08\n        /* \"#utility.yul\":9232:9245   */\n      mul\n        /* \"#utility.yul\":9203:9254   */\n      tag_63\n      jump\t// in\n    tag_172:\n        /* \"#utility.yul\":9199:9255   */\n      not\n        /* \"#utility.yul\":9284:9288   */\n      dup1\n        /* \"#utility.yul\":9278:9282   */\n      dup4\n        /* \"#utility.yul\":9274:9289   */\n      and\n        /* \"#utility.yul\":9264:9289   */\n      swap2\n      pop\n        /* \"#utility.yul\":9177:9295   */\n      pop\n        /* \"#utility.yul\":9126:9295   */\n      swap3\n      swap2\n      pop\n      pop\n      jump\t// out\n        /* \"#utility.yul\":9300:9595   */\n    tag_65:\n        /* \"#utility.yul\":9376:9380   */\n      0x00\n        /* \"#utility.yul\":9522:9551   */\n      tag_174\n        /* \"#utility.yul\":9547:9550   */\n      dup4\n        /* \"#utility.yul\":9541:9545   */\n      dup4\n        /* \"#utility.yul\":9522:9551   */\n      tag_64\n      jump\t// in\n    tag_174:\n        /* \"#utility.yul\":9514:9551   */\n      swap2\n      pop\n        /* \"#utility.yul\":9584:9587   */\n      dup3\n        /* \"#utility.yul\":9581:9582   */\n      0x02\n        /* \"#utility.yul\":9577:9588   */\n      mul\n        /* \"#utility.yul\":9571:9575   */\n      dup3\n        /* \"#utility.yul\":9568:9589   */\n      or\n        /* \"#utility.yul\":9560:9589   */\n      swap1\n      pop\n        /* \"#utility.yul\":9300:9595   */\n      swap3\n      swap2\n      pop\n      pop\n      jump\t// out\n        /* \"#utility.yul\":9600:10995   */\n    tag_26:\n        /* \"#utility.yul\":9717:9754   */\n      tag_176\n        /* \"#utility.yul\":9750:9753   */\n      dup3\n        /* \"#utility.yul\":9717:9754   */\n      tag_33\n      jump\t// in\n    tag_176:\n        /* \"#utility.yul\":9819:9837   */\n      0xffffffffffffffff\n        /* \"#utility.yul\":9811:9817   */\n      dup2\n        /* \"#utility.yul\":9808:9838   */\n      gt\n        /* \"#utility.yul\":9805:9861   */\n      iszero\n      tag_177\n      jumpi\n        /* \"#utility.yul\":9841:9859   */\n      tag_178\n      tag_42\n      jump\t// in\n    tag_178:\n        /* \"#utility.yul\":9805:9861   */\n    tag_177:\n        /* \"#utility.yul\":9885:9923   */\n      tag_179\n        /* \"#utility.yul\":9917:9921   */\n      dup3\n        /* \"#utility.yul\":9911:9922   */\n      sload\n        /* \"#utility.yul\":9885:9923   */\n      tag_19\n      jump\t// in\n    tag_179:\n        /* \"#utility.yul\":9970:10037   */\n      tag_180\n        /* \"#utility.yul\":10030:10036   */\n      dup3\n        /* \"#utility.yul\":10022:10028   */\n      dup3\n        /* \"#utility.yul\":10016:10020   */\n      dup6\n        /* \"#utility.yul\":9970:10037   */\n      tag_62\n      jump\t// in\n    tag_180:\n        /* \"#utility.yul\":10064:10065   */\n      0x00\n        /* \"#utility.yul\":10088:10092   */\n      0x20\n        /* \"#utility.yul\":10075:10092   */\n      swap1\n      pop\n        /* \"#utility.yul\":10120:10122   */\n      0x1f\n        /* \"#utility.yul\":10112:10118   */\n      dup4\n        /* \"#utility.yul\":10109:10123   */\n      gt\n        /* \"#utility.yul\":10137:10138   */\n      0x01\n        /* \"#utility.yul\":10132:10750   */\n      dup2\n      eq\n      tag_182\n      jumpi\n        /* \"#utility.yul\":10794:10795   */\n      0x00\n        /* \"#utility.yul\":10811:10817   */\n      dup5\n        /* \"#utility.yul\":10808:10885   */\n      iszero\n      tag_183\n      jumpi\n        /* \"#utility.yul\":10860:10869   */\n      dup3\n        /* \"#utility.yul\":10855:10858   */\n      dup8\n        /* \"#utility.yul\":10851:10870   */\n      add\n        /* \"#utility.yul\":10845:10871   */\n      mload\n        /* \"#utility.yul\":10836:10871   */\n      swap1\n      pop\n        /* \"#utility.yul\":10808:10885   */\n    tag_183:\n        /* \"#utility.yul\":10911:10978   */\n      tag_184\n        /* \"#utility.yul\":10971:10977   */\n      dup6\n        /* \"#utility.yul\":10964:10969   */\n      dup3\n        /* \"#utility.yul\":10911:10978   */\n      tag_65\n      jump\t// in\n    tag_184:\n        /* \"#utility.yul\":10905:10909   */\n      dup7\n        /* \"#utility.yul\":10898:10979   */\n      sstore\n        /* \"#utility.yul\":10767:10989   */\n      pop\n        /* \"#utility.yul\":10102:10989   */\n      jump(tag_181)\n        /* \"#utility.yul\":10132:10750   */\n    tag_182:\n        /* \"#utility.yul\":10184:10188   */\n      0x1f\n        /* \"#utility.yul\":10180:10189   */\n      not\n        /* \"#utility.yul\":10172:10178   */\n      dup5\n        /* \"#utility.yul\":10168:10190   */\n      and\n        /* \"#utility.yul\":10218:10255   */\n      tag_185\n        /* \"#utility.yul\":10250:10254   */\n      dup7\n        /* \"#utility.yul\":10218:10255   */\n      tag_50\n      jump\t// in\n    tag_185:\n        /* \"#utility.yul\":10277:10278   */\n      0x00\n        /* \"#utility.yul\":10291:10499   */\n    tag_186:\n        /* \"#utility.yul\":10305:10312   */\n      dup3\n        /* \"#utility.yul\":10302:10303   */\n      dup2\n        /* \"#utility.yul\":10299:10313   */\n      lt\n        /* \"#utility.yul\":10291:10499   */\n      iszero\n      tag_188\n      jumpi\n        /* \"#utility.yul\":10384:10393   */\n      dup5\n        /* \"#utility.yul\":10379:10382   */\n      dup10\n        /* \"#utility.yul\":10375:10394   */\n      add\n        /* \"#utility.yul\":10369:10395   */\n      mload\n        /* \"#utility.yul\":10361:10367   */\n      dup3\n        /* \"#utility.yul\":10354:10396   */\n      sstore\n        /* \"#utility.yul\":10435:10436   */\n      0x01\n        /* \"#utility.yul\":10427:10433   */\n      dup3\n        /* \"#utility.yul\":10423:10437   */\n      add\n        /* \"#utility.yul\":10413:10437   */\n      swap2\n      pop\n        /* \"#utility.yul\":10482:10484   */\n      0x20\n        /* \"#utility.yul\":10471:10480   */\n      dup6\n        /* \"#utility.yul\":10467:10485   */\n      add\n        /* \"#utility.yul\":10454:10485   */\n      swap5\n      pop\n        /* \"#utility.yul\":10328:10332   */\n      0x20\n        /* \"#utility.yul\":10325:10326   */\n      dup2\n        /* \"#utility.yul\":10321:10333   */\n      add\n        /* \"#utility.yul\":10316:10333   */\n      swap1\n      pop\n        /* \"#utility.yul\":10291:10499   */\n      jump(tag_186)\n    tag_188:\n        /* \"#utility.yul\":10527:10533   */\n      dup7\n        /* \"#utility.yul\":10518:10525   */\n      dup4\n        /* \"#utility.yul\":10515:10534   */\n      lt\n        /* \"#utility.yul\":10512:10691   */\n      iszero\n      tag_189\n      jumpi\n        /* \"#utility.yul\":10585:10594   */\n      dup5\n        /* \"#utility.yul\":10580:10583   */\n      dup10\n        /* \"#utility.yul\":10576:10595   */\n      add\n        /* \"#utility.yul\":10570:10596   */\n      mload\n        /* \"#utility.yul\":10628:10676   */\n      tag_190\n        /* \"#utility.yul\":10670:10674   */\n      0x1f\n        /* \"#utility.yul\":10662:10668   */\n      dup10\n        /* \"#utility.yul\":10658:10675   */\n      and\n        /* \"#utility.yul\":10647:10656   */\n      dup3\n        /* \"#utility.yul\":10628:10676   */\n      tag_64\n      jump\t// in\n    tag_190:\n        /* \"#utility.yul\":10620:10626   */\n      dup4\n        /* \"#utility.yul\":10613:10677   */\n      sstore\n        /* \"#utility.yul\":10535:10691   */\n      pop\n        /* \"#utility.yul\":10512:10691   */\n    tag_189:\n        /* \"#utility.yul\":10737:10738   */\n      0x01\n        /* \"#utility.yul\":10733:10734   */\n      0x02\n        /* \"#utility.yul\":10725:10731   */\n      dup9\n        /* \"#utility.yul\":10721:10735   */\n      mul\n        /* \"#utility.yul\":10717:10739   */\n      add\n        /* \"#utility.yul\":10711:10715   */\n      dup9\n        /* \"#utility.yul\":10704:10740   */\n      sstore\n        /* \"#utility.yul\":10139:10750   */\n      pop\n      pop\n      pop\n        /* \"#utility.yul\":10102:10989   */\n    tag_181:\n      pop\n        /* \"#utility.yul\":9692:10995   */\n      pop\n      pop\n      pop\n        /* \"#utility.yul\":9600:10995   */\n      pop\n      pop\n      jump\t// out\n\n    auxdata: 0xa26469706673582212203f7e775a91a743e92f45d177a25ade2df727ebb96b928f2aa9af5e6389436b1164736f6c63430008130033\n}\n",
				"bytecode": {
					"linkReferences": {},
					"object": "608060405234801561001057600080fd5b50610821806100206000396000f3fe608060405234801561001057600080fd5b50600436106100365760003560e01c8063174d39f61461003b578063e2e68e171461006b575b600080fd5b61005560048036038101906100509190610234565b610087565b604051610062919061033d565b60405180910390f35b61008560048036038101906100809190610494565b610168565b005b61008f6101ca565b6000808360ff1660ff1681526020019081526020016000206040518060400160405290816000820180546100c290610532565b80601f01602080910402602001604051908101604052809291908181526020018280546100ee90610532565b801561013b5780601f106101105761010080835404028352916020019161013b565b820191906000526020600020905b81548152906001019060200180831161011e57829003601f168201915b505050505081526020016001820160009054906101000a900460ff1660ff1660ff16815250509050919050565b816000808560ff1660ff16815260200190815260200160002060000190816101909190610719565b50806000808560ff1660ff16815260200190815260200160002060010160006101000a81548160ff021916908360ff160217905550505050565b604051806040016040528060608152602001600060ff1681525090565b6000604051905090565b600080fd5b600080fd5b600060ff82169050919050565b610211816101fb565b811461021c57600080fd5b50565b60008135905061022e81610208565b92915050565b60006020828403121561024a576102496101f1565b5b60006102588482850161021f565b91505092915050565b600081519050919050565b600082825260208201905092915050565b60005b8381101561029b578082015181840152602081019050610280565b60008484015250505050565b6000601f19601f8301169050919050565b60006102c382610261565b6102cd818561026c565b93506102dd81856020860161027d565b6102e6816102a7565b840191505092915050565b6102fa816101fb565b82525050565b6000604083016000830151848203600086015261031d82826102b8565b915050602083015161033260208601826102f1565b508091505092915050565b600060208201905081810360008301526103578184610300565b905092915050565b600080fd5b600080fd5b7f4e487b7100000000000000000000000000000000000000000000000000000000600052604160045260246000fd5b6103a1826102a7565b810181811067ffffffffffffffff821117156103c0576103bf610369565b5b80604052505050565b60006103d36101e7565b90506103df8282610398565b919050565b600067ffffffffffffffff8211156103ff576103fe610369565b5b610408826102a7565b9050602081019050919050565b82818337600083830152505050565b6000610437610432846103e4565b6103c9565b90508281526020810184848401111561045357610452610364565b5b61045e848285610415565b509392505050565b600082601f83011261047b5761047a61035f565b5b813561048b848260208601610424565b91505092915050565b6000806000606084860312156104ad576104ac6101f1565b5b60006104bb8682870161021f565b935050602084013567ffffffffffffffff8111156104dc576104db6101f6565b5b6104e886828701610466565b92505060406104f98682870161021f565b9150509250925092565b7f4e487b7100000000000000000000000000000000000000000000000000000000600052602260045260246000fd5b6000600282049050600182168061054a57607f821691505b60208210810361055d5761055c610503565b5b50919050565b60008190508160005260206000209050919050565b60006020601f8301049050919050565b600082821b905092915050565b6000600883026105c57fffffffffffffffffffffffffffffffffffffffffffffffffffffffffffffffff82610588565b6105cf8683610588565b95508019841693508086168417925050509392505050565b6000819050919050565b6000819050919050565b600061061661061161060c846105e7565b6105f1565b6105e7565b9050919050565b6000819050919050565b610630836105fb565b61064461063c8261061d565b848454610595565b825550505050565b600090565b61065961064c565b610664818484610627565b505050565b5b818110156106885761067d600082610651565b60018101905061066a565b5050565b601f8211156106cd5761069e81610563565b6106a784610578565b810160208510156106b6578190505b6106ca6106c285610578565b830182610669565b50505b505050565b600082821c905092915050565b60006106f0600019846008026106d2565b1980831691505092915050565b600061070983836106df565b9150826002028217905092915050565b61072282610261565b67ffffffffffffffff81111561073b5761073a610369565b5b6107458254610532565b61075082828561068c565b600060209050601f8311600181146107835760008415610771578287015190505b61077b85826106fd565b8655506107e3565b601f19841661079186610563565b60005b828110156107b957848901518255600182019150602085019450602081019050610794565b868310156107d657848901516107d2601f8916826106df565b8355505b6001600288020188555050505b50505050505056fea26469706673582212203f7e775a91a743e92f45d177a25ade2df727ebb96b928f2aa9af5e6389436b1164736f6c63430008130033",
					"opcodes": "PUSH1 0x80 PUSH1 0x40 MSTORE CALLVALUE DUP1 ISZERO PUSH2 0x10 JUMPI PUSH1 0x0 DUP1 REVERT JUMPDEST POP PUSH2 0x821 DUP1 PUSH2 0x20 PUSH1 0x0 CODECOPY PUSH1 0x0 RETURN INVALID PUSH1 0x80 PUSH1 0x40 MSTORE CALLVALUE DUP1 ISZERO PUSH2 0x10 JUMPI PUSH1 0x0 DUP1 REVERT JUMPDEST POP PUSH1 0x4 CALLDATASIZE LT PUSH2 0x36 JUMPI PUSH1 0x0 CALLDATALOAD PUSH1 0xE0 SHR DUP1 PUSH4 0x174D39F6 EQ PUSH2 0x3B JUMPI DUP1 PUSH4 0xE2E68E17 EQ PUSH2 0x6B JUMPI JUMPDEST PUSH1 0x0 DUP1 REVERT JUMPDEST PUSH2 0x55 PUSH1 0x4 DUP1 CALLDATASIZE SUB DUP2 ADD SWAP1 PUSH2 0x50 SWAP2 SWAP1 PUSH2 0x234 JUMP JUMPDEST PUSH2 0x87 JUMP JUMPDEST PUSH1 0x40 MLOAD PUSH2 0x62 SWAP2 SWAP1 PUSH2 0x33D JUMP JUMPDEST PUSH1 0x40 MLOAD DUP1 SWAP2 SUB SWAP1 RETURN JUMPDEST PUSH2 0x85 PUSH1 0x4 DUP1 CALLDATASIZE SUB DUP2 ADD SWAP1 PUSH2 0x80 SWAP2 SWAP1 PUSH2 0x494 JUMP JUMPDEST PUSH2 0x168 JUMP JUMPDEST STOP JUMPDEST PUSH2 0x8F PUSH2 0x1CA JUMP JUMPDEST PUSH1 0x0 DUP1 DUP4 PUSH1 0xFF AND PUSH1 0xFF AND DUP2 MSTORE PUSH1 0x20 ADD SWAP1 DUP2 MSTORE PUSH1 0x20 ADD PUSH1 0x0 KECCAK256 PUSH1 0x40 MLOAD DUP1 PUSH1 0x40 ADD PUSH1 0x40 MSTORE SWAP1 DUP2 PUSH1 0x0 DUP3 ADD DUP1 SLOAD PUSH2 0xC2 SWAP1 PUSH2 0x532 JUMP JUMPDEST DUP1 PUSH1 0x1F ADD PUSH1 0x20 DUP1 SWAP2 DIV MUL PUSH1 0x20 ADD PUSH1 0x40 MLOAD SWAP1 DUP2 ADD PUSH1 0x40 MSTORE DUP1 SWAP3 SWAP2 SWAP1 DUP2 DUP2 MSTORE PUSH1 0x20 ADD DUP3 DUP1 SLOAD PUSH2 0xEE SWAP1 PUSH2 0x532 JUMP JUMPDEST DUP1 ISZERO PUSH2 0x13B JUMPI DUP1 PUSH1 0x1F LT PUSH2 0x110 JUMPI PUSH2 0x100 DUP1 DUP4 SLOAD DIV MUL DUP4 MSTORE SWAP2 PUSH1 0x20 ADD SWAP2 PUSH2 0x13B JUMP JUMPDEST DUP3 ADD SWAP2 SWAP1 PUSH1 0x0 MSTORE PUSH1 0x20 PUSH1 0x0 KECCAK256 SWAP1 JUMPDEST DUP2 SLOAD DUP2 MSTORE SWAP1 PUSH1 0x1 ADD SWAP1 PUSH1 0x20 ADD DUP1 DUP4 GT PUSH2 0x11E JUMPI DUP3 SWAP1 SUB PUSH1 0x1F AND DUP3 ADD SWAP2 JUMPDEST POP POP POP POP POP DUP2 MSTORE PUSH1 0x20 ADD PUSH1 0x1 DUP3 ADD PUSH1 0x0 SWAP1 SLOAD SWAP1 PUSH2 0x100 EXP SWAP1 DIV PUSH1 0xFF AND PUSH1 0xFF AND PUSH1 0xFF AND DUP2 MSTORE POP POP SWAP1 POP SWAP2 SWAP1 POP JUMP JUMPDEST DUP2 PUSH1 0x0 DUP1 DUP6 PUSH1 0xFF AND PUSH1 0xFF AND DUP2 MSTORE PUSH1 0x20 ADD SWAP1 DUP2 MSTORE PUSH1 0x20 ADD PUSH1 0x0 KECCAK256 PUSH1 0x0 ADD SWAP1 DUP2 PUSH2 0x190 SWAP2 SWAP1 PUSH2 0x719 JUMP JUMPDEST POP DUP1 PUSH1 0x0 DUP1 DUP6 PUSH1 0xFF AND PUSH1 0xFF AND DUP2 MSTORE PUSH1 0x20 ADD SWAP1 DUP2 MSTORE PUSH1 0x20 ADD PUSH1 0x0 KECCAK256 PUSH1 0x1 ADD PUSH1 0x0 PUSH2 0x100 EXP DUP2 SLOAD DUP2 PUSH1 0xFF MUL NOT AND SWAP1 DUP4 PUSH1 0xFF AND MUL OR SWAP1 SSTORE POP POP POP POP JUMP JUMPDEST PUSH1 0x40 MLOAD DUP1 PUSH1 0x40 ADD PUSH1 0x40 MSTORE DUP1 PUSH1 0x60 DUP2 MSTORE PUSH1 0x20 ADD PUSH1 0x0 PUSH1 0xFF AND DUP2 MSTORE POP SWAP1 JUMP JUMPDEST PUSH1 0x0 PUSH1 0x40 MLOAD SWAP1 POP SWAP1 JUMP JUMPDEST PUSH1 0x0 DUP1 REVERT JUMPDEST PUSH1 0x0 DUP1 REVERT JUMPDEST PUSH1 0x0 PUSH1 0xFF DUP3 AND SWAP1 POP SWAP2 SWAP1 POP JUMP JUMPDEST PUSH2 0x211 DUP2 PUSH2 0x1FB JUMP JUMPDEST DUP2 EQ PUSH2 0x21C JUMPI PUSH1 0x0 DUP1 REVERT JUMPDEST POP JUMP JUMPDEST PUSH1 0x0 DUP2 CALLDATALOAD SWAP1 POP PUSH2 0x22E DUP2 PUSH2 0x208 JUMP JUMPDEST SWAP3 SWAP2 POP POP JUMP JUMPDEST PUSH1 0x0 PUSH1 0x20 DUP3 DUP5 SUB SLT ISZERO PUSH2 0x24A JUMPI PUSH2 0x249 PUSH2 0x1F1 JUMP JUMPDEST JUMPDEST PUSH1 0x0 PUSH2 0x258 DUP5 DUP3 DUP6 ADD PUSH2 0x21F JUMP JUMPDEST SWAP2 POP POP SWAP3 SWAP2 POP POP JUMP JUMPDEST PUSH1 0x0 DUP2 MLOAD SWAP1 POP SWAP2 SWAP1 POP JUMP JUMPDEST PUSH1 0x0 DUP3 DUP3 MSTORE PUSH1 0x20 DUP3 ADD SWAP1 POP SWAP3 SWAP2 POP POP JUMP JUMPDEST PUSH1 0x0 JUMPDEST DUP4 DUP2 LT ISZERO PUSH2 0x29B JUMPI DUP1 DUP3 ADD MLOAD DUP2 DUP5 ADD MSTORE PUSH1 0x20 DUP2 ADD SWAP1 POP PUSH2 0x280 JUMP JUMPDEST PUSH1 0x0 DUP5 DUP5 ADD MSTORE POP POP POP POP JUMP JUMPDEST PUSH1 0x0 PUSH1 0x1F NOT PUSH1 0x1F DUP4 ADD AND SWAP1 POP SWAP2 SWAP1 POP JUMP JUMPDEST PUSH1 0x0 PUSH2 0x2C3 DUP3 PUSH2 0x261 JUMP JUMPDEST PUSH2 0x2CD DUP2 DUP6 PUSH2 0x26C JUMP JUMPDEST SWAP4 POP PUSH2 0x2DD DUP2 DUP6 PUSH1 0x20 DUP7 ADD PUSH2 0x27D JUMP JUMPDEST PUSH2 0x2E6 DUP2 PUSH2 0x2A7 JUMP JUMPDEST DUP5 ADD SWAP2 POP POP SWAP3 SWAP2 POP POP JUMP JUMPDEST PUSH2 0x2FA DUP2 PUSH2 0x1FB JUMP JUMPDEST DUP3 MSTORE POP POP JUMP JUMPDEST PUSH1 0x0 PUSH1 0x40 DUP4 ADD PUSH1 0x0 DUP4 ADD MLOAD DUP5 DUP3 SUB PUSH1 0x0 DUP7 ADD MSTORE PUSH2 0x31D DUP3 DUP3 PUSH2 0x2B8 JUMP JUMPDEST SWAP2 POP POP PUSH1 0x20 DUP4 ADD MLOAD PUSH2 0x332 PUSH1 0x20 DUP7 ADD DUP3 PUSH2 0x2F1 JUMP JUMPDEST POP DUP1 SWAP2 POP POP SWAP3 SWAP2 POP POP JUMP JUMPDEST PUSH1 0x0 PUSH1 0x20 DUP3 ADD SWAP1 POP DUP2 DUP2 SUB PUSH1 0x0 DUP4 ADD MSTORE PUSH2 0x357 DUP2 DUP5 PUSH2 0x300 JUMP JUMPDEST SWAP1 POP SWAP3 SWAP2 POP POP JUMP JUMPDEST PUSH1 0x0 DUP1 REVERT JUMPDEST PUSH1 0x0 DUP1 REVERT JUMPDEST PUSH32 0x4E487B7100000000000000000000000000000000000000000000000000000000 PUSH1 0x0 MSTORE PUSH1 0x41 PUSH1 0x4 MSTORE PUSH1 0x24 PUSH1 0x0 REVERT JUMPDEST PUSH2 0x3A1 DUP3 PUSH2 0x2A7 JUMP JUMPDEST DUP2 ADD DUP2 DUP2 LT PUSH8 0xFFFFFFFFFFFFFFFF DUP3 GT OR ISZERO PUSH2 0x3C0 JUMPI PUSH2 0x3BF PUSH2 0x369 JUMP JUMPDEST JUMPDEST DUP1 PUSH1 0x40 MSTORE POP POP POP JUMP JUMPDEST PUSH1 0x0 PUSH2 0x3D3 PUSH2 0x1E7 JUMP JUMPDEST SWAP1 POP PUSH2 0x3DF DUP3 DUP3 PUSH2 0x398 JUMP JUMPDEST SWAP2 SWAP1 POP JUMP JUMPDEST PUSH1 0x0 PUSH8 0xFFFFFFFFFFFFFFFF DUP3 GT ISZERO PUSH2 0x3FF JUMPI PUSH2 0x3FE PUSH2 0x369 JUMP JUMPDEST JUMPDEST PUSH2 0x408 DUP3 PUSH2 0x2A7 JUMP JUMPDEST SWAP1 POP PUSH1 0x20 DUP2 ADD SWAP1 POP SWAP2 SWAP1 POP JUMP JUMPDEST DUP3 DUP2 DUP4 CALLDATACOPY PUSH1 0x0 DUP4 DUP4 ADD MSTORE POP POP POP JUMP JUMPDEST PUSH1 0x0 PUSH2 0x437 PUSH2 0x432 DUP5 PUSH2 0x3E4 JUMP JUMPDEST PUSH2 0x3C9 JUMP JUMPDEST SWAP1 POP DUP3 DUP2 MSTORE PUSH1 0x20 DUP2 ADD DUP5 DUP5 DUP5 ADD GT ISZERO PUSH2 0x453 JUMPI PUSH2 0x452 PUSH2 0x364 JUMP JUMPDEST JUMPDEST PUSH2 0x45E DUP5 DUP3 DUP6 PUSH2 0x415 JUMP JUMPDEST POP SWAP4 SWAP3 POP POP POP JUMP JUMPDEST PUSH1 0x0 DUP3 PUSH1 0x1F DUP4 ADD SLT PUSH2 0x47B JUMPI PUSH2 0x47A PUSH2 0x35F JUMP JUMPDEST JUMPDEST DUP2 CALLDATALOAD PUSH2 0x48B DUP5 DUP3 PUSH1 0x20 DUP7 ADD PUSH2 0x424 JUMP JUMPDEST SWAP2 POP POP SWAP3 SWAP2 POP POP JUMP JUMPDEST PUSH1 0x0 DUP1 PUSH1 0x0 PUSH1 0x60 DUP5 DUP7 SUB SLT ISZERO PUSH2 0x4AD JUMPI PUSH2 0x4AC PUSH2 0x1F1 JUMP JUMPDEST JUMPDEST PUSH1 0x0 PUSH2 0x4BB DUP7 DUP3 DUP8 ADD PUSH2 0x21F JUMP JUMPDEST SWAP4 POP POP PUSH1 0x20 DUP5 ADD CALLDATALOAD PUSH8 0xFFFFFFFFFFFFFFFF DUP2 GT ISZERO PUSH2 0x4DC JUMPI PUSH2 0x4DB PUSH2 0x1F6 JUMP JUMPDEST JUMPDEST PUSH2 0x4E8 DUP7 DUP3 DUP8 ADD PUSH2 0x466 JUMP JUMPDEST SWAP3 POP POP PUSH1 0x40 PUSH2 0x4F9 DUP7 DUP3 DUP8 ADD PUSH2 0x21F JUMP JUMPDEST SWAP2 POP POP SWAP3 POP SWAP3 POP SWAP3 JUMP JUMPDEST PUSH32 0x4E487B7100000000000000000000000000000000000000000000000000000000 PUSH1 0x0 MSTORE PUSH1 0x22 PUSH1 0x4 MSTORE PUSH1 0x24 PUSH1 0x0 REVERT JUMPDEST PUSH1 0x0 PUSH1 0x2 DUP3 DIV SWAP1 POP PUSH1 0x1 DUP3 AND DUP1 PUSH2 0x54A JUMPI PUSH1 0x7F DUP3 AND SWAP2 POP JUMPDEST PUSH1 0x20 DUP3 LT DUP2 SUB PUSH2 0x55D JUMPI PUSH2 0x55C PUSH2 0x503 JUMP JUMPDEST JUMPDEST POP SWAP2 SWAP1 POP JUMP JUMPDEST PUSH1 0x0 DUP2 SWAP1 POP DUP2 PUSH1 0x0 MSTORE PUSH1 0x20 PUSH1 0x0 KECCAK256 SWAP1 POP SWAP2 SWAP1 POP JUMP JUMPDEST PUSH1 0x0 PUSH1 0x20 PUSH1 0x1F DUP4 ADD DIV SWAP1 POP SWAP2 SWAP1 POP JUMP JUMPDEST PUSH1 0x0 DUP3 DUP3 SHL SWAP1 POP SWAP3 SWAP2 POP POP JUMP JUMPDEST PUSH1 0x0 PUSH1 0x8 DUP4 MUL PUSH2 0x5C5 PUSH32 0xFFFFFFFFFFFFFFFFFFFFFFFFFFFFFFFFFFFFFFFFFFFFFFFFFFFFFFFFFFFFFFFF DUP3 PUSH2 0x588 JUMP JUMPDEST PUSH2 0x5CF DUP7 DUP4 PUSH2 0x588 JUMP JUMPDEST SWAP6 POP DUP1 NOT DUP5 AND SWAP4 POP DUP1 DUP7 AND DUP5 OR SWAP3 POP POP POP SWAP4 SWAP3 POP POP POP JUMP JUMPDEST PUSH1 0x0 DUP2 SWAP1 POP SWAP2 SWAP1 POP JUMP JUMPDEST PUSH1 0x0 DUP2 SWAP1 POP SWAP2 SWAP1 POP JUMP JUMPDEST PUSH1 0x0 PUSH2 0x616 PUSH2 0x611 PUSH2 0x60C DUP5 PUSH2 0x5E7 JUMP JUMPDEST PUSH2 0x5F1 JUMP JUMPDEST PUSH2 0x5E7 JUMP JUMPDEST SWAP1 POP SWAP2 SWAP1 POP JUMP JUMPDEST PUSH1 0x0 DUP2 SWAP1 POP SWAP2 SWAP1 POP JUMP JUMPDEST PUSH2 0x630 DUP4 PUSH2 0x5FB JUMP JUMPDEST PUSH2 0x644 PUSH2 0x63C DUP3 PUSH2 0x61D JUMP JUMPDEST DUP5 DUP5 SLOAD PUSH2 0x595 JUMP JUMPDEST DUP3 SSTORE POP POP POP POP JUMP JUMPDEST PUSH1 0x0 SWAP1 JUMP JUMPDEST PUSH2 0x659 PUSH2 0x64C JUMP JUMPDEST PUSH2 0x664 DUP2 DUP5 DUP5 PUSH2 0x627 JUMP JUMPDEST POP POP POP JUMP JUMPDEST JUMPDEST DUP2 DUP2 LT ISZERO PUSH2 0x688 JUMPI PUSH2 0x67D PUSH1 0x0 DUP3 PUSH2 0x651 JUMP JUMPDEST PUSH1 0x1 DUP2 ADD SWAP1 POP PUSH2 0x66A JUMP JUMPDEST POP POP JUMP JUMPDEST PUSH1 0x1F DUP3 GT ISZERO PUSH2 0x6CD JUMPI PUSH2 0x69E DUP2 PUSH2 0x563 JUMP JUMPDEST PUSH2 0x6A7 DUP5 PUSH2 0x578 JUMP JUMPDEST DUP2 ADD PUSH1 0x20 DUP6 LT ISZERO PUSH2 0x6B6 JUMPI DUP2 SWAP1 POP JUMPDEST PUSH2 0x6CA PUSH2 0x6C2 DUP6 PUSH2 0x578 JUMP JUMPDEST DUP4 ADD DUP3 PUSH2 0x669 JUMP JUMPDEST POP POP JUMPDEST POP POP POP JUMP JUMPDEST PUSH1 0x0 DUP3 DUP3 SHR SWAP1 POP SWAP3 SWAP2 POP POP JUMP JUMPDEST PUSH1 0x0 PUSH2 0x6F0 PUSH1 0x0 NOT DUP5 PUSH1 0x8 MUL PUSH2 0x6D2 JUMP JUMPDEST NOT DUP1 DUP4 AND SWAP2 POP POP SWAP3 SWAP2 POP POP JUMP JUMPDEST PUSH1 0x0 PUSH2 0x709 DUP4 DUP4 PUSH2 0x6DF JUMP JUMPDEST SWAP2 POP DUP3 PUSH1 0x2 MUL DUP3 OR SWAP1 POP SWAP3 SWAP2 POP POP JUMP JUMPDEST PUSH2 0x722 DUP3 PUSH2 0x261 JUMP JUMPDEST PUSH8 0xFFFFFFFFFFFFFFFF DUP2 GT ISZERO PUSH2 0x73B JUMPI PUSH2 0x73A PUSH2 0x369 JUMP JUMPDEST JUMPDEST PUSH2 0x745 DUP3 SLOAD PUSH2 0x532 JUMP JUMPDEST PUSH2 0x750 DUP3 DUP3 DUP6 PUSH2 0x68C JUMP JUMPDEST PUSH1 0x0 PUSH1 0x20 SWAP1 POP PUSH1 0x1F DUP4 GT PUSH1 0x1 DUP2 EQ PUSH2 0x783 JUMPI PUSH1 0x0 DUP5 ISZERO PUSH2 0x771 JUMPI DUP3 DUP8 ADD MLOAD SWAP1 POP JUMPDEST PUSH2 0x77B DUP6 DUP3 PUSH2 0x6FD JUMP JUMPDEST DUP7 SSTORE POP PUSH2 0x7E3 JUMP JUMPDEST PUSH1 0x1F NOT DUP5 AND PUSH2 0x791 DUP7 PUSH2 0x563 JUMP JUMPDEST PUSH1 0x0 JUMPDEST DUP3 DUP2 LT ISZERO PUSH2 0x7B9 JUMPI DUP5 DUP10 ADD MLOAD DUP3 SSTORE PUSH1 0x1 DUP3 ADD SWAP2 POP PUSH1 0x20 DUP6 ADD SWAP5 POP PUSH1 0x20 DUP2 ADD SWAP1 POP PUSH2 0x794 JUMP JUMPDEST DUP7 DUP4 LT ISZERO PUSH2 0x7D6 JUMPI DUP5 DUP10 ADD MLOAD PUSH2 0x7D2 PUSH1 0x1F DUP10 AND DUP3 PUSH2 0x6DF JUMP JUMPDEST DUP4 SSTORE POP JUMPDEST PUSH1 0x1 PUSH1 0x2 DUP9 MUL ADD DUP9 SSTORE POP POP POP JUMPDEST POP POP POP POP POP POP JUMP INVALID LOG2 PUSH5 0x6970667358 0x22 SLT KECCAK256 EXTCODEHASH PUSH31 0x775A91A743E92F45D177A25ADE2DF727EBB96B928F2AA9AF5E6389436B1164 PUSH20 0x6F6C634300081300330000000000000000000000 "
				},
				"gasEstimates": {
					"creation": {
						"codeDepositCost": "416200",
						"executionCost": "455",
						"totalCost": "416655"
					},
					"external": {
						"addLearner(uint8,string,uint8)": "infinite",
						"getLearner(uint8)": "infinite"
					}
				},
				"methodIdentifiers": {
					"addLearner(uint8,string,uint8)": "e2e68e17",
					"getLearner(uint8)": "174d39f6"
				}
			},
			"storageLayout": {
				"storage": [
					{
						"astId": 11,
						"contract": "contracts/struct.sol:SimpleStruct",
						"label": "learners",
						"offset": 0,
						"slot": "0",
						"type": "t_mapping(t_uint8,t_struct(Learner)6_storage)"
					}
				],
				"types": {
					"t_mapping(t_uint8,t_struct(Learner)6_storage)": {
						"encoding": "mapping",
						"key": "t_uint8",
						"label": "mapping(uint8 => struct SimpleStruct.Learner)",
						"numberOfBytes": "32",
						"value": "t_struct(Learner)6_storage"
					},
					"t_string_storage": {
						"encoding": "bytes",
						"label": "string",
						"numberOfBytes": "32"
					},
					"t_struct(Learner)6_storage": {
						"encoding": "inplace",
						"label": "struct SimpleStruct.Learner",
						"members": [
							{
								"astId": 3,
								"contract": "contracts/struct.sol:SimpleStruct",
								"label": "name",
								"offset": 0,
								"slot": "0",
								"type": "t_string_storage"
							},
							{
								"astId": 5,
								"contract": "contracts/struct.sol:SimpleStruct",
								"label": "age",
								"offset": 0,
								"slot": "1",
								"type": "t_uint8"
							}
						],
						"numberOfBytes": "64"
					},
					"t_uint8": {
						"encoding": "inplace",
						"label": "uint8",
						"numberOfBytes": "1"
					}
				}
			},
			"userdoc": {
				"kind": "user",
				"methods": {},
				"version": 1
			}
		}
	}
}