{
	"contracts/variables.sol": {
		"TestVariables": {
			"abi": [
				{
					"inputs": [
						{
							"internalType": "uint8",
							"name": "_index",
							"type": "uint8"
						},
						{
							"internalType": "uint8",
							"name": "_value",
							"type": "uint8"
						}
					],
					"name": "addAge",
					"outputs": [],
					"stateMutability": "nonpayable",
					"type": "function"
				},
				{
					"inputs": [
						{
							"internalType": "string",
							"name": "_value",
							"type": "string"
						}
					],
					"name": "addName",
					"outputs": [],
					"stateMutability": "nonpayable",
					"type": "function"
				},
				{
					"inputs": [
						{
							"internalType": "uint8",
							"name": "_index",
							"type": "uint8"
						}
					],
					"name": "getAge",
					"outputs": [
						{
							"internalType": "uint8",
							"name": "",
							"type": "uint8"
						}
					],
					"stateMutability": "view",
					"type": "function"
				},
				{
					"inputs": [
						{
							"internalType": "uint8",
							"name": "_index",
							"type": "uint8"
						}
					],
					"name": "getName",
					"outputs": [
						{
							"internalType": "string",
							"name": "",
							"type": "string"
						}
					],
					"stateMutability": "view",
					"type": "function"
				}
			],
			"devdoc": {
				"kind": "dev",
				"methods": {},
				"version": 1
			},
			"evm": {
				"assembly": "    /* \"contracts/variables.sol\":58:1012  contract TestVariables {... */\n  mstore(0x40, 0x80)\n    /* \"contracts/variables.sol\":424:446  bytes32 name = \"Alice\" */\n  sstore(0x03, 0x416c696365000000000000000000000000000000000000000000000000000000)\n    /* \"contracts/variables.sol\":58:1012  contract TestVariables {... */\n  callvalue\n  dup1\n  iszero\n  tag_1\n  jumpi\n  0x00\n  dup1\n  revert\ntag_1:\n  pop\n  dataSize(sub_0)\n  dup1\n  dataOffset(sub_0)\n  0x00\n  codecopy\n  0x00\n  return\nstop\n\nsub_0: assembly {\n        /* \"contracts/variables.sol\":58:1012  contract TestVariables {... */\n      mstore(0x40, 0x80)\n      callvalue\n      dup1\n      iszero\n      tag_1\n      jumpi\n      0x00\n      dup1\n      revert\n    tag_1:\n      pop\n      jumpi(tag_2, lt(calldatasize, 0x04))\n      shr(0xe0, calldataload(0x00))\n      dup1\n      0x11456b47\n      eq\n      tag_3\n      jumpi\n      dup1\n      0x47e12f8c\n      eq\n      tag_4\n      jumpi\n      dup1\n      0x618b220f\n      eq\n      tag_5\n      jumpi\n      dup1\n      0x9df92b91\n      eq\n      tag_6\n      jumpi\n    tag_2:\n      0x00\n      dup1\n      revert\n        /* \"contracts/variables.sol\":816:896  function addName(string memory _value) public{... */\n    tag_3:\n      tag_7\n      0x04\n      dup1\n      calldatasize\n      sub\n      dup2\n      add\n      swap1\n      tag_8\n      swap2\n      swap1\n      tag_9\n      jump\t// in\n    tag_8:\n      tag_10\n      jump\t// in\n    tag_7:\n      stop\n        /* \"contracts/variables.sol\":716:810  function getAge(uint8 _index) public view returns (uint8) {... */\n    tag_4:\n      tag_11\n      0x04\n      dup1\n      calldatasize\n      sub\n      dup2\n      add\n      swap1\n      tag_12\n      swap2\n      swap1\n      tag_13\n      jump\t// in\n    tag_12:\n      tag_14\n      jump\t// in\n    tag_11:\n      mload(0x40)\n      tag_15\n      swap2\n      swap1\n      tag_16\n      jump\t// in\n    tag_15:\n      mload(0x40)\n      dup1\n      swap2\n      sub\n      swap1\n      return\n        /* \"contracts/variables.sol\":902:1005  function getName(uint8 _index) public view returns (string memory){... */\n    tag_5:\n      tag_17\n      0x04\n      dup1\n      calldatasize\n      sub\n      dup2\n      add\n      swap1\n      tag_18\n      swap2\n      swap1\n      tag_13\n      jump\t// in\n    tag_18:\n      tag_19\n      jump\t// in\n    tag_17:\n      mload(0x40)\n      tag_20\n      swap2\n      swap1\n      tag_21\n      jump\t// in\n    tag_20:\n      mload(0x40)\n      dup1\n      swap2\n      sub\n      swap1\n      return\n        /* \"contracts/variables.sol\":622:710  function addAge(uint8 _index, uint8 _value) public{... */\n    tag_6:\n      tag_22\n      0x04\n      dup1\n      calldatasize\n      sub\n      dup2\n      add\n      swap1\n      tag_23\n      swap2\n      swap1\n      tag_24\n      jump\t// in\n    tag_23:\n      tag_25\n      jump\t// in\n    tag_22:\n      stop\n        /* \"contracts/variables.sol\":816:896  function addName(string memory _value) public{... */\n    tag_10:\n        /* \"contracts/variables.sol\":871:876  names */\n      0x06\n        /* \"contracts/variables.sol\":882:888  _value */\n      dup2\n        /* \"contracts/variables.sol\":871:889  names.push(_value) */\n      swap1\n      dup1\n      0x01\n      dup2\n      sload\n      add\n      dup1\n      dup3\n      sstore\n      dup1\n      swap2\n      pop\n      pop\n      0x01\n      swap1\n      sub\n      swap1\n      0x00\n      mstore\n      keccak256(0x00, 0x20)\n      add\n      0x00\n      swap1\n      swap2\n      swap1\n      swap2\n      swap1\n      swap2\n      pop\n      swap1\n      dup2\n      tag_28\n      swap2\n      swap1\n      tag_29\n      jump\t// in\n    tag_28:\n      pop\n        /* \"contracts/variables.sol\":816:896  function addName(string memory _value) public{... */\n      pop\n      jump\t// out\n        /* \"contracts/variables.sol\":716:810  function getAge(uint8 _index) public view returns (uint8) {... */\n    tag_14:\n        /* \"contracts/variables.sol\":767:772  uint8 */\n      0x00\n        /* \"contracts/variables.sol\":791:795  ages */\n      0x05\n        /* \"contracts/variables.sol\":796:802  _index */\n      dup3\n        /* \"contracts/variables.sol\":791:803  ages[_index] */\n      0xff\n      and\n      0x0a\n      dup2\n      lt\n      tag_31\n      jumpi\n      tag_32\n      tag_33\n      jump\t// in\n    tag_32:\n    tag_31:\n      0x20\n      swap2\n      dup3\n      dup3\n      div\n      add\n      swap2\n      swap1\n      mod\n      swap1\n      sload\n      swap1\n      0x0100\n      exp\n      swap1\n      div\n      0xff\n      and\n        /* \"contracts/variables.sol\":784:803  return ages[_index] */\n      swap1\n      pop\n        /* \"contracts/variables.sol\":716:810  function getAge(uint8 _index) public view returns (uint8) {... */\n      swap2\n      swap1\n      pop\n      jump\t// out\n        /* \"contracts/variables.sol\":902:1005  function getName(uint8 _index) public view returns (string memory){... */\n    tag_19:\n        /* \"contracts/variables.sol\":954:967  string memory */\n      0x60\n        /* \"contracts/variables.sol\":985:990  names */\n      0x06\n        /* \"contracts/variables.sol\":991:997  _index */\n      dup3\n        /* \"contracts/variables.sol\":985:998  names[_index] */\n      0xff\n      and\n      dup2\n      sload\n      dup2\n      lt\n      tag_36\n      jumpi\n      tag_37\n      tag_33\n      jump\t// in\n    tag_37:\n    tag_36:\n      swap1\n      0x00\n      mstore\n      keccak256(0x00, 0x20)\n      add\n        /* \"contracts/variables.sol\":978:998  return names[_index] */\n      dup1\n      sload\n      tag_39\n      swap1\n      tag_40\n      jump\t// in\n    tag_39:\n      dup1\n      0x1f\n      add\n      0x20\n      dup1\n      swap2\n      div\n      mul\n      0x20\n      add\n      mload(0x40)\n      swap1\n      dup2\n      add\n      0x40\n      mstore\n      dup1\n      swap3\n      swap2\n      swap1\n      dup2\n      dup2\n      mstore\n      0x20\n      add\n      dup3\n      dup1\n      sload\n      tag_41\n      swap1\n      tag_40\n      jump\t// in\n    tag_41:\n      dup1\n      iszero\n      tag_42\n      jumpi\n      dup1\n      0x1f\n      lt\n      tag_43\n      jumpi\n      0x0100\n      dup1\n      dup4\n      sload\n      div\n      mul\n      dup4\n      mstore\n      swap2\n      0x20\n      add\n      swap2\n      jump(tag_42)\n    tag_43:\n      dup3\n      add\n      swap2\n      swap1\n      0x00\n      mstore\n      keccak256(0x00, 0x20)\n      swap1\n    tag_44:\n      dup2\n      sload\n      dup2\n      mstore\n      swap1\n      0x01\n      add\n      swap1\n      0x20\n      add\n      dup1\n      dup4\n      gt\n      tag_44\n      jumpi\n      dup3\n      swap1\n      sub\n      0x1f\n      and\n      dup3\n      add\n      swap2\n    tag_42:\n      pop\n      pop\n      pop\n      pop\n      pop\n      swap1\n      pop\n        /* \"contracts/variables.sol\":902:1005  function getName(uint8 _index) public view returns (string memory){... */\n      swap2\n      swap1\n      pop\n      jump\t// out\n        /* \"contracts/variables.sol\":622:710  function addAge(uint8 _index, uint8 _value) public{... */\n    tag_25:\n        /* \"contracts/variables.sol\":697:703  _value */\n      dup1\n        /* \"contracts/variables.sol\":682:686  ages */\n      0x05\n        /* \"contracts/variables.sol\":687:693  _index */\n      dup4\n        /* \"contracts/variables.sol\":682:694  ages[_index] */\n      0xff\n      and\n      0x0a\n      dup2\n      lt\n      tag_46\n      jumpi\n      tag_47\n      tag_33\n      jump\t// in\n    tag_47:\n    tag_46:\n      0x20\n      swap2\n      dup3\n      dup3\n      div\n      add\n      swap2\n      swap1\n      mod\n        /* \"contracts/variables.sol\":682:703  ages[_index] = _value */\n      0x0100\n      exp\n      dup2\n      sload\n      dup2\n      0xff\n      mul\n      not\n      and\n      swap1\n      dup4\n      0xff\n      and\n      mul\n      or\n      swap1\n      sstore\n      pop\n        /* \"contracts/variables.sol\":622:710  function addAge(uint8 _index, uint8 _value) public{... */\n      pop\n      pop\n      jump\t// out\n        /* \"#utility.yul\":7:82   */\n    tag_49:\n        /* \"#utility.yul\":40:46   */\n      0x00\n        /* \"#utility.yul\":73:75   */\n      0x40\n        /* \"#utility.yul\":67:76   */\n      mload\n        /* \"#utility.yul\":57:76   */\n      swap1\n      pop\n        /* \"#utility.yul\":7:82   */\n      swap1\n      jump\t// out\n        /* \"#utility.yul\":88:205   */\n    tag_50:\n        /* \"#utility.yul\":197:198   */\n      0x00\n        /* \"#utility.yul\":194:195   */\n      dup1\n        /* \"#utility.yul\":187:199   */\n      revert\n        /* \"#utility.yul\":211:328   */\n    tag_51:\n        /* \"#utility.yul\":320:321   */\n      0x00\n        /* \"#utility.yul\":317:318   */\n      dup1\n        /* \"#utility.yul\":310:322   */\n      revert\n        /* \"#utility.yul\":334:451   */\n    tag_52:\n        /* \"#utility.yul\":443:444   */\n      0x00\n        /* \"#utility.yul\":440:441   */\n      dup1\n        /* \"#utility.yul\":433:445   */\n      revert\n        /* \"#utility.yul\":457:574   */\n    tag_53:\n        /* \"#utility.yul\":566:567   */\n      0x00\n        /* \"#utility.yul\":563:564   */\n      dup1\n        /* \"#utility.yul\":556:568   */\n      revert\n        /* \"#utility.yul\":580:682   */\n    tag_54:\n        /* \"#utility.yul\":621:627   */\n      0x00\n        /* \"#utility.yul\":672:674   */\n      0x1f\n        /* \"#utility.yul\":668:675   */\n      not\n        /* \"#utility.yul\":663:665   */\n      0x1f\n        /* \"#utility.yul\":656:661   */\n      dup4\n        /* \"#utility.yul\":652:666   */\n      add\n        /* \"#utility.yul\":648:676   */\n      and\n        /* \"#utility.yul\":638:676   */\n      swap1\n      pop\n        /* \"#utility.yul\":580:682   */\n      swap2\n      swap1\n      pop\n      jump\t// out\n        /* \"#utility.yul\":688:868   */\n    tag_55:\n        /* \"#utility.yul\":736:813   */\n      0x4e487b7100000000000000000000000000000000000000000000000000000000\n        /* \"#utility.yul\":733:734   */\n      0x00\n        /* \"#utility.yul\":726:814   */\n      mstore\n        /* \"#utility.yul\":833:837   */\n      0x41\n        /* \"#utility.yul\":830:831   */\n      0x04\n        /* \"#utility.yul\":823:838   */\n      mstore\n        /* \"#utility.yul\":857:861   */\n      0x24\n        /* \"#utility.yul\":854:855   */\n      0x00\n        /* \"#utility.yul\":847:862   */\n      revert\n        /* \"#utility.yul\":874:1155   */\n    tag_56:\n        /* \"#utility.yul\":957:984   */\n      tag_96\n        /* \"#utility.yul\":979:983   */\n      dup3\n        /* \"#utility.yul\":957:984   */\n      tag_54\n      jump\t// in\n    tag_96:\n        /* \"#utility.yul\":949:955   */\n      dup2\n        /* \"#utility.yul\":945:985   */\n      add\n        /* \"#utility.yul\":1087:1093   */\n      dup2\n        /* \"#utility.yul\":1075:1085   */\n      dup2\n        /* \"#utility.yul\":1072:1094   */\n      lt\n        /* \"#utility.yul\":1051:1069   */\n      0xffffffffffffffff\n        /* \"#utility.yul\":1039:1049   */\n      dup3\n        /* \"#utility.yul\":1036:1070   */\n      gt\n        /* \"#utility.yul\":1033:1095   */\n      or\n        /* \"#utility.yul\":1030:1118   */\n      iszero\n      tag_97\n      jumpi\n        /* \"#utility.yul\":1098:1116   */\n      tag_98\n      tag_55\n      jump\t// in\n    tag_98:\n        /* \"#utility.yul\":1030:1118   */\n    tag_97:\n        /* \"#utility.yul\":1138:1148   */\n      dup1\n        /* \"#utility.yul\":1134:1136   */\n      0x40\n        /* \"#utility.yul\":1127:1149   */\n      mstore\n        /* \"#utility.yul\":917:1155   */\n      pop\n        /* \"#utility.yul\":874:1155   */\n      pop\n      pop\n      jump\t// out\n        /* \"#utility.yul\":1161:1290   */\n    tag_57:\n        /* \"#utility.yul\":1195:1201   */\n      0x00\n        /* \"#utility.yul\":1222:1242   */\n      tag_100\n      tag_49\n      jump\t// in\n    tag_100:\n        /* \"#utility.yul\":1212:1242   */\n      swap1\n      pop\n        /* \"#utility.yul\":1251:1284   */\n      tag_101\n        /* \"#utility.yul\":1279:1283   */\n      dup3\n        /* \"#utility.yul\":1271:1277   */\n      dup3\n        /* \"#utility.yul\":1251:1284   */\n      tag_56\n      jump\t// in\n    tag_101:\n        /* \"#utility.yul\":1161:1290   */\n      swap2\n      swap1\n      pop\n      jump\t// out\n        /* \"#utility.yul\":1296:1604   */\n    tag_58:\n        /* \"#utility.yul\":1358:1362   */\n      0x00\n        /* \"#utility.yul\":1448:1466   */\n      0xffffffffffffffff\n        /* \"#utility.yul\":1440:1446   */\n      dup3\n        /* \"#utility.yul\":1437:1467   */\n      gt\n        /* \"#utility.yul\":1434:1490   */\n      iszero\n      tag_103\n      jumpi\n        /* \"#utility.yul\":1470:1488   */\n      tag_104\n      tag_55\n      jump\t// in\n    tag_104:\n        /* \"#utility.yul\":1434:1490   */\n    tag_103:\n        /* \"#utility.yul\":1508:1537   */\n      tag_105\n        /* \"#utility.yul\":1530:1536   */\n      dup3\n        /* \"#utility.yul\":1508:1537   */\n      tag_54\n      jump\t// in\n    tag_105:\n        /* \"#utility.yul\":1500:1537   */\n      swap1\n      pop\n        /* \"#utility.yul\":1592:1596   */\n      0x20\n        /* \"#utility.yul\":1586:1590   */\n      dup2\n        /* \"#utility.yul\":1582:1597   */\n      add\n        /* \"#utility.yul\":1574:1597   */\n      swap1\n      pop\n        /* \"#utility.yul\":1296:1604   */\n      swap2\n      swap1\n      pop\n      jump\t// out\n        /* \"#utility.yul\":1610:1756   */\n    tag_59:\n        /* \"#utility.yul\":1707:1713   */\n      dup3\n        /* \"#utility.yul\":1702:1705   */\n      dup2\n        /* \"#utility.yul\":1697:1700   */\n      dup4\n        /* \"#utility.yul\":1684:1714   */\n      calldatacopy\n        /* \"#utility.yul\":1748:1749   */\n      0x00\n        /* \"#utility.yul\":1739:1745   */\n      dup4\n        /* \"#utility.yul\":1734:1737   */\n      dup4\n        /* \"#utility.yul\":1730:1746   */\n      add\n        /* \"#utility.yul\":1723:1750   */\n      mstore\n        /* \"#utility.yul\":1610:1756   */\n      pop\n      pop\n      pop\n      jump\t// out\n        /* \"#utility.yul\":1762:2187   */\n    tag_60:\n        /* \"#utility.yul\":1840:1845   */\n      0x00\n        /* \"#utility.yul\":1865:1931   */\n      tag_108\n        /* \"#utility.yul\":1881:1930   */\n      tag_109\n        /* \"#utility.yul\":1923:1929   */\n      dup5\n        /* \"#utility.yul\":1881:1930   */\n      tag_58\n      jump\t// in\n    tag_109:\n        /* \"#utility.yul\":1865:1931   */\n      tag_57\n      jump\t// in\n    tag_108:\n        /* \"#utility.yul\":1856:1931   */\n      swap1\n      pop\n        /* \"#utility.yul\":1954:1960   */\n      dup3\n        /* \"#utility.yul\":1947:1952   */\n      dup2\n        /* \"#utility.yul\":1940:1961   */\n      mstore\n        /* \"#utility.yul\":1992:1996   */\n      0x20\n        /* \"#utility.yul\":1985:1990   */\n      dup2\n        /* \"#utility.yul\":1981:1997   */\n      add\n        /* \"#utility.yul\":2030:2033   */\n      dup5\n        /* \"#utility.yul\":2021:2027   */\n      dup5\n        /* \"#utility.yul\":2016:2019   */\n      dup5\n        /* \"#utility.yul\":2012:2028   */\n      add\n        /* \"#utility.yul\":2009:2034   */\n      gt\n        /* \"#utility.yul\":2006:2118   */\n      iszero\n      tag_110\n      jumpi\n        /* \"#utility.yul\":2037:2116   */\n      tag_111\n      tag_53\n      jump\t// in\n    tag_111:\n        /* \"#utility.yul\":2006:2118   */\n    tag_110:\n        /* \"#utility.yul\":2127:2181   */\n      tag_112\n        /* \"#utility.yul\":2174:2180   */\n      dup5\n        /* \"#utility.yul\":2169:2172   */\n      dup3\n        /* \"#utility.yul\":2164:2167   */\n      dup6\n        /* \"#utility.yul\":2127:2181   */\n      tag_59\n      jump\t// in\n    tag_112:\n        /* \"#utility.yul\":1846:2187   */\n      pop\n        /* \"#utility.yul\":1762:2187   */\n      swap4\n      swap3\n      pop\n      pop\n      pop\n      jump\t// out\n        /* \"#utility.yul\":2207:2547   */\n    tag_61:\n        /* \"#utility.yul\":2263:2268   */\n      0x00\n        /* \"#utility.yul\":2312:2315   */\n      dup3\n        /* \"#utility.yul\":2305:2309   */\n      0x1f\n        /* \"#utility.yul\":2297:2303   */\n      dup4\n        /* \"#utility.yul\":2293:2310   */\n      add\n        /* \"#utility.yul\":2289:2316   */\n      slt\n        /* \"#utility.yul\":2279:2401   */\n      tag_114\n      jumpi\n        /* \"#utility.yul\":2320:2399   */\n      tag_115\n      tag_52\n      jump\t// in\n    tag_115:\n        /* \"#utility.yul\":2279:2401   */\n    tag_114:\n        /* \"#utility.yul\":2437:2443   */\n      dup2\n        /* \"#utility.yul\":2424:2444   */\n      calldataload\n        /* \"#utility.yul\":2462:2541   */\n      tag_116\n        /* \"#utility.yul\":2537:2540   */\n      dup5\n        /* \"#utility.yul\":2529:2535   */\n      dup3\n        /* \"#utility.yul\":2522:2526   */\n      0x20\n        /* \"#utility.yul\":2514:2520   */\n      dup7\n        /* \"#utility.yul\":2510:2527   */\n      add\n        /* \"#utility.yul\":2462:2541   */\n      tag_60\n      jump\t// in\n    tag_116:\n        /* \"#utility.yul\":2453:2541   */\n      swap2\n      pop\n        /* \"#utility.yul\":2269:2547   */\n      pop\n        /* \"#utility.yul\":2207:2547   */\n      swap3\n      swap2\n      pop\n      pop\n      jump\t// out\n        /* \"#utility.yul\":2553:3062   */\n    tag_9:\n        /* \"#utility.yul\":2622:2628   */\n      0x00\n        /* \"#utility.yul\":2671:2673   */\n      0x20\n        /* \"#utility.yul\":2659:2668   */\n      dup3\n        /* \"#utility.yul\":2650:2657   */\n      dup5\n        /* \"#utility.yul\":2646:2669   */\n      sub\n        /* \"#utility.yul\":2642:2674   */\n      slt\n        /* \"#utility.yul\":2639:2758   */\n      iszero\n      tag_118\n      jumpi\n        /* \"#utility.yul\":2677:2756   */\n      tag_119\n      tag_50\n      jump\t// in\n    tag_119:\n        /* \"#utility.yul\":2639:2758   */\n    tag_118:\n        /* \"#utility.yul\":2825:2826   */\n      0x00\n        /* \"#utility.yul\":2814:2823   */\n      dup3\n        /* \"#utility.yul\":2810:2827   */\n      add\n        /* \"#utility.yul\":2797:2828   */\n      calldataload\n        /* \"#utility.yul\":2855:2873   */\n      0xffffffffffffffff\n        /* \"#utility.yul\":2847:2853   */\n      dup2\n        /* \"#utility.yul\":2844:2874   */\n      gt\n        /* \"#utility.yul\":2841:2958   */\n      iszero\n      tag_120\n      jumpi\n        /* \"#utility.yul\":2877:2956   */\n      tag_121\n      tag_51\n      jump\t// in\n    tag_121:\n        /* \"#utility.yul\":2841:2958   */\n    tag_120:\n        /* \"#utility.yul\":2982:3045   */\n      tag_122\n        /* \"#utility.yul\":3037:3044   */\n      dup5\n        /* \"#utility.yul\":3028:3034   */\n      dup3\n        /* \"#utility.yul\":3017:3026   */\n      dup6\n        /* \"#utility.yul\":3013:3035   */\n      add\n        /* \"#utility.yul\":2982:3045   */\n      tag_61\n      jump\t// in\n    tag_122:\n        /* \"#utility.yul\":2972:3045   */\n      swap2\n      pop\n        /* \"#utility.yul\":2768:3055   */\n      pop\n        /* \"#utility.yul\":2553:3062   */\n      swap3\n      swap2\n      pop\n      pop\n      jump\t// out\n        /* \"#utility.yul\":3068:3154   */\n    tag_62:\n        /* \"#utility.yul\":3103:3110   */\n      0x00\n        /* \"#utility.yul\":3143:3147   */\n      0xff\n        /* \"#utility.yul\":3136:3141   */\n      dup3\n        /* \"#utility.yul\":3132:3148   */\n      and\n        /* \"#utility.yul\":3121:3148   */\n      swap1\n      pop\n        /* \"#utility.yul\":3068:3154   */\n      swap2\n      swap1\n      pop\n      jump\t// out\n        /* \"#utility.yul\":3160:3278   */\n    tag_63:\n        /* \"#utility.yul\":3231:3253   */\n      tag_125\n        /* \"#utility.yul\":3247:3252   */\n      dup2\n        /* \"#utility.yul\":3231:3253   */\n      tag_62\n      jump\t// in\n    tag_125:\n        /* \"#utility.yul\":3224:3229   */\n      dup2\n        /* \"#utility.yul\":3221:3254   */\n      eq\n        /* \"#utility.yul\":3211:3272   */\n      tag_126\n      jumpi\n        /* \"#utility.yul\":3268:3269   */\n      0x00\n        /* \"#utility.yul\":3265:3266   */\n      dup1\n        /* \"#utility.yul\":3258:3270   */\n      revert\n        /* \"#utility.yul\":3211:3272   */\n    tag_126:\n        /* \"#utility.yul\":3160:3278   */\n      pop\n      jump\t// out\n        /* \"#utility.yul\":3284:3419   */\n    tag_64:\n        /* \"#utility.yul\":3328:3333   */\n      0x00\n        /* \"#utility.yul\":3366:3372   */\n      dup2\n        /* \"#utility.yul\":3353:3373   */\n      calldataload\n        /* \"#utility.yul\":3344:3373   */\n      swap1\n      pop\n        /* \"#utility.yul\":3382:3413   */\n      tag_128\n        /* \"#utility.yul\":3407:3412   */\n      dup2\n        /* \"#utility.yul\":3382:3413   */\n      tag_63\n      jump\t// in\n    tag_128:\n        /* \"#utility.yul\":3284:3419   */\n      swap3\n      swap2\n      pop\n      pop\n      jump\t// out\n        /* \"#utility.yul\":3425:3750   */\n    tag_13:\n        /* \"#utility.yul\":3482:3488   */\n      0x00\n        /* \"#utility.yul\":3531:3533   */\n      0x20\n        /* \"#utility.yul\":3519:3528   */\n      dup3\n        /* \"#utility.yul\":3510:3517   */\n      dup5\n        /* \"#utility.yul\":3506:3529   */\n      sub\n        /* \"#utility.yul\":3502:3534   */\n      slt\n        /* \"#utility.yul\":3499:3618   */\n      iszero\n      tag_130\n      jumpi\n        /* \"#utility.yul\":3537:3616   */\n      tag_131\n      tag_50\n      jump\t// in\n    tag_131:\n        /* \"#utility.yul\":3499:3618   */\n    tag_130:\n        /* \"#utility.yul\":3657:3658   */\n      0x00\n        /* \"#utility.yul\":3682:3733   */\n      tag_132\n        /* \"#utility.yul\":3725:3732   */\n      dup5\n        /* \"#utility.yul\":3716:3722   */\n      dup3\n        /* \"#utility.yul\":3705:3714   */\n      dup6\n        /* \"#utility.yul\":3701:3723   */\n      add\n        /* \"#utility.yul\":3682:3733   */\n      tag_64\n      jump\t// in\n    tag_132:\n        /* \"#utility.yul\":3672:3733   */\n      swap2\n      pop\n        /* \"#utility.yul\":3628:3743   */\n      pop\n        /* \"#utility.yul\":3425:3750   */\n      swap3\n      swap2\n      pop\n      pop\n      jump\t// out\n        /* \"#utility.yul\":3756:3868   */\n    tag_65:\n        /* \"#utility.yul\":3839:3861   */\n      tag_134\n        /* \"#utility.yul\":3855:3860   */\n      dup2\n        /* \"#utility.yul\":3839:3861   */\n      tag_62\n      jump\t// in\n    tag_134:\n        /* \"#utility.yul\":3834:3837   */\n      dup3\n        /* \"#utility.yul\":3827:3862   */\n      mstore\n        /* \"#utility.yul\":3756:3868   */\n      pop\n      pop\n      jump\t// out\n        /* \"#utility.yul\":3874:4088   */\n    tag_16:\n        /* \"#utility.yul\":3963:3967   */\n      0x00\n        /* \"#utility.yul\":4001:4003   */\n      0x20\n        /* \"#utility.yul\":3990:3999   */\n      dup3\n        /* \"#utility.yul\":3986:4004   */\n      add\n        /* \"#utility.yul\":3978:4004   */\n      swap1\n      pop\n        /* \"#utility.yul\":4014:4081   */\n      tag_136\n        /* \"#utility.yul\":4078:4079   */\n      0x00\n        /* \"#utility.yul\":4067:4076   */\n      dup4\n        /* \"#utility.yul\":4063:4080   */\n      add\n        /* \"#utility.yul\":4054:4060   */\n      dup5\n        /* \"#utility.yul\":4014:4081   */\n      tag_65\n      jump\t// in\n    tag_136:\n        /* \"#utility.yul\":3874:4088   */\n      swap3\n      swap2\n      pop\n      pop\n      jump\t// out\n        /* \"#utility.yul\":4094:4193   */\n    tag_66:\n        /* \"#utility.yul\":4146:4152   */\n      0x00\n        /* \"#utility.yul\":4180:4185   */\n      dup2\n        /* \"#utility.yul\":4174:4186   */\n      mload\n        /* \"#utility.yul\":4164:4186   */\n      swap1\n      pop\n        /* \"#utility.yul\":4094:4193   */\n      swap2\n      swap1\n      pop\n      jump\t// out\n        /* \"#utility.yul\":4199:4368   */\n    tag_67:\n        /* \"#utility.yul\":4283:4294   */\n      0x00\n        /* \"#utility.yul\":4317:4323   */\n      dup3\n        /* \"#utility.yul\":4312:4315   */\n      dup3\n        /* \"#utility.yul\":4305:4324   */\n      mstore\n        /* \"#utility.yul\":4357:4361   */\n      0x20\n        /* \"#utility.yul\":4352:4355   */\n      dup3\n        /* \"#utility.yul\":4348:4362   */\n      add\n        /* \"#utility.yul\":4333:4362   */\n      swap1\n      pop\n        /* \"#utility.yul\":4199:4368   */\n      swap3\n      swap2\n      pop\n      pop\n      jump\t// out\n        /* \"#utility.yul\":4374:4620   */\n    tag_68:\n        /* \"#utility.yul\":4455:4456   */\n      0x00\n        /* \"#utility.yul\":4465:4578   */\n    tag_140:\n        /* \"#utility.yul\":4479:4485   */\n      dup4\n        /* \"#utility.yul\":4476:4477   */\n      dup2\n        /* \"#utility.yul\":4473:4486   */\n      lt\n        /* \"#utility.yul\":4465:4578   */\n      iszero\n      tag_142\n      jumpi\n        /* \"#utility.yul\":4564:4565   */\n      dup1\n        /* \"#utility.yul\":4559:4562   */\n      dup3\n        /* \"#utility.yul\":4555:4566   */\n      add\n        /* \"#utility.yul\":4549:4567   */\n      mload\n        /* \"#utility.yul\":4545:4546   */\n      dup2\n        /* \"#utility.yul\":4540:4543   */\n      dup5\n        /* \"#utility.yul\":4536:4547   */\n      add\n        /* \"#utility.yul\":4529:4568   */\n      mstore\n        /* \"#utility.yul\":4501:4503   */\n      0x20\n        /* \"#utility.yul\":4498:4499   */\n      dup2\n        /* \"#utility.yul\":4494:4504   */\n      add\n        /* \"#utility.yul\":4489:4504   */\n      swap1\n      pop\n        /* \"#utility.yul\":4465:4578   */\n      jump(tag_140)\n    tag_142:\n        /* \"#utility.yul\":4612:4613   */\n      0x00\n        /* \"#utility.yul\":4603:4609   */\n      dup5\n        /* \"#utility.yul\":4598:4601   */\n      dup5\n        /* \"#utility.yul\":4594:4610   */\n      add\n        /* \"#utility.yul\":4587:4614   */\n      mstore\n        /* \"#utility.yul\":4436:4620   */\n      pop\n        /* \"#utility.yul\":4374:4620   */\n      pop\n      pop\n      pop\n      jump\t// out\n        /* \"#utility.yul\":4626:5003   */\n    tag_69:\n        /* \"#utility.yul\":4714:4717   */\n      0x00\n        /* \"#utility.yul\":4742:4781   */\n      tag_144\n        /* \"#utility.yul\":4775:4780   */\n      dup3\n        /* \"#utility.yul\":4742:4781   */\n      tag_66\n      jump\t// in\n    tag_144:\n        /* \"#utility.yul\":4797:4868   */\n      tag_145\n        /* \"#utility.yul\":4861:4867   */\n      dup2\n        /* \"#utility.yul\":4856:4859   */\n      dup6\n        /* \"#utility.yul\":4797:4868   */\n      tag_67\n      jump\t// in\n    tag_145:\n        /* \"#utility.yul\":4790:4868   */\n      swap4\n      pop\n        /* \"#utility.yul\":4877:4942   */\n      tag_146\n        /* \"#utility.yul\":4935:4941   */\n      dup2\n        /* \"#utility.yul\":4930:4933   */\n      dup6\n        /* \"#utility.yul\":4923:4927   */\n      0x20\n        /* \"#utility.yul\":4916:4921   */\n      dup7\n        /* \"#utility.yul\":4912:4928   */\n      add\n        /* \"#utility.yul\":4877:4942   */\n      tag_68\n      jump\t// in\n    tag_146:\n        /* \"#utility.yul\":4967:4996   */\n      tag_147\n        /* \"#utility.yul\":4989:4995   */\n      dup2\n        /* \"#utility.yul\":4967:4996   */\n      tag_54\n      jump\t// in\n    tag_147:\n        /* \"#utility.yul\":4962:4965   */\n      dup5\n        /* \"#utility.yul\":4958:4997   */\n      add\n        /* \"#utility.yul\":4951:4997   */\n      swap2\n      pop\n        /* \"#utility.yul\":4718:5003   */\n      pop\n        /* \"#utility.yul\":4626:5003   */\n      swap3\n      swap2\n      pop\n      pop\n      jump\t// out\n        /* \"#utility.yul\":5009:5322   */\n    tag_21:\n        /* \"#utility.yul\":5122:5126   */\n      0x00\n        /* \"#utility.yul\":5160:5162   */\n      0x20\n        /* \"#utility.yul\":5149:5158   */\n      dup3\n        /* \"#utility.yul\":5145:5163   */\n      add\n        /* \"#utility.yul\":5137:5163   */\n      swap1\n      pop\n        /* \"#utility.yul\":5209:5218   */\n      dup2\n        /* \"#utility.yul\":5203:5207   */\n      dup2\n        /* \"#utility.yul\":5199:5219   */\n      sub\n        /* \"#utility.yul\":5195:5196   */\n      0x00\n        /* \"#utility.yul\":5184:5193   */\n      dup4\n        /* \"#utility.yul\":5180:5197   */\n      add\n        /* \"#utility.yul\":5173:5220   */\n      mstore\n        /* \"#utility.yul\":5237:5315   */\n      tag_149\n        /* \"#utility.yul\":5310:5314   */\n      dup2\n        /* \"#utility.yul\":5301:5307   */\n      dup5\n        /* \"#utility.yul\":5237:5315   */\n      tag_69\n      jump\t// in\n    tag_149:\n        /* \"#utility.yul\":5229:5315   */\n      swap1\n      pop\n        /* \"#utility.yul\":5009:5322   */\n      swap3\n      swap2\n      pop\n      pop\n      jump\t// out\n        /* \"#utility.yul\":5328:5794   */\n    tag_24:\n        /* \"#utility.yul\":5392:5398   */\n      0x00\n        /* \"#utility.yul\":5400:5406   */\n      dup1\n        /* \"#utility.yul\":5449:5451   */\n      0x40\n        /* \"#utility.yul\":5437:5446   */\n      dup4\n        /* \"#utility.yul\":5428:5435   */\n      dup6\n        /* \"#utility.yul\":5424:5447   */\n      sub\n        /* \"#utility.yul\":5420:5452   */\n      slt\n        /* \"#utility.yul\":5417:5536   */\n      iszero\n      tag_151\n      jumpi\n        /* \"#utility.yul\":5455:5534   */\n      tag_152\n      tag_50\n      jump\t// in\n    tag_152:\n        /* \"#utility.yul\":5417:5536   */\n    tag_151:\n        /* \"#utility.yul\":5575:5576   */\n      0x00\n        /* \"#utility.yul\":5600:5651   */\n      tag_153\n        /* \"#utility.yul\":5643:5650   */\n      dup6\n        /* \"#utility.yul\":5634:5640   */\n      dup3\n        /* \"#utility.yul\":5623:5632   */\n      dup7\n        /* \"#utility.yul\":5619:5641   */\n      add\n        /* \"#utility.yul\":5600:5651   */\n      tag_64\n      jump\t// in\n    tag_153:\n        /* \"#utility.yul\":5590:5651   */\n      swap3\n      pop\n        /* \"#utility.yul\":5546:5661   */\n      pop\n        /* \"#utility.yul\":5700:5702   */\n      0x20\n        /* \"#utility.yul\":5726:5777   */\n      tag_154\n        /* \"#utility.yul\":5769:5776   */\n      dup6\n        /* \"#utility.yul\":5760:5766   */\n      dup3\n        /* \"#utility.yul\":5749:5758   */\n      dup7\n        /* \"#utility.yul\":5745:5767   */\n      add\n        /* \"#utility.yul\":5726:5777   */\n      tag_64\n      jump\t// in\n    tag_154:\n        /* \"#utility.yul\":5716:5777   */\n      swap2\n      pop\n        /* \"#utility.yul\":5671:5787   */\n      pop\n        /* \"#utility.yul\":5328:5794   */\n      swap3\n      pop\n      swap3\n      swap1\n      pop\n      jump\t// out\n        /* \"#utility.yul\":5800:5980   */\n    tag_70:\n        /* \"#utility.yul\":5848:5925   */\n      0x4e487b7100000000000000000000000000000000000000000000000000000000\n        /* \"#utility.yul\":5845:5846   */\n      0x00\n        /* \"#utility.yul\":5838:5926   */\n      mstore\n        /* \"#utility.yul\":5945:5949   */\n      0x22\n        /* \"#utility.yul\":5942:5943   */\n      0x04\n        /* \"#utility.yul\":5935:5950   */\n      mstore\n        /* \"#utility.yul\":5969:5973   */\n      0x24\n        /* \"#utility.yul\":5966:5967   */\n      0x00\n        /* \"#utility.yul\":5959:5974   */\n      revert\n        /* \"#utility.yul\":5986:6306   */\n    tag_40:\n        /* \"#utility.yul\":6030:6036   */\n      0x00\n        /* \"#utility.yul\":6067:6068   */\n      0x02\n        /* \"#utility.yul\":6061:6065   */\n      dup3\n        /* \"#utility.yul\":6057:6069   */\n      div\n        /* \"#utility.yul\":6047:6069   */\n      swap1\n      pop\n        /* \"#utility.yul\":6114:6115   */\n      0x01\n        /* \"#utility.yul\":6108:6112   */\n      dup3\n        /* \"#utility.yul\":6104:6116   */\n      and\n        /* \"#utility.yul\":6135:6153   */\n      dup1\n        /* \"#utility.yul\":6125:6206   */\n      tag_157\n      jumpi\n        /* \"#utility.yul\":6191:6195   */\n      0x7f\n        /* \"#utility.yul\":6183:6189   */\n      dup3\n        /* \"#utility.yul\":6179:6196   */\n      and\n        /* \"#utility.yul\":6169:6196   */\n      swap2\n      pop\n        /* \"#utility.yul\":6125:6206   */\n    tag_157:\n        /* \"#utility.yul\":6253:6255   */\n      0x20\n        /* \"#utility.yul\":6245:6251   */\n      dup3\n        /* \"#utility.yul\":6242:6256   */\n      lt\n        /* \"#utility.yul\":6222:6240   */\n      dup2\n        /* \"#utility.yul\":6219:6257   */\n      sub\n        /* \"#utility.yul\":6216:6300   */\n      tag_158\n      jumpi\n        /* \"#utility.yul\":6272:6290   */\n      tag_159\n      tag_70\n      jump\t// in\n    tag_159:\n        /* \"#utility.yul\":6216:6300   */\n    tag_158:\n        /* \"#utility.yul\":6037:6306   */\n      pop\n        /* \"#utility.yul\":5986:6306   */\n      swap2\n      swap1\n      pop\n      jump\t// out\n        /* \"#utility.yul\":6312:6453   */\n    tag_71:\n        /* \"#utility.yul\":6361:6365   */\n      0x00\n        /* \"#utility.yul\":6384:6387   */\n      dup2\n        /* \"#utility.yul\":6376:6387   */\n      swap1\n      pop\n        /* \"#utility.yul\":6407:6410   */\n      dup2\n        /* \"#utility.yul\":6404:6405   */\n      0x00\n        /* \"#utility.yul\":6397:6411   */\n      mstore\n        /* \"#utility.yul\":6441:6445   */\n      0x20\n        /* \"#utility.yul\":6438:6439   */\n      0x00\n        /* \"#utility.yul\":6428:6446   */\n      keccak256\n        /* \"#utility.yul\":6420:6446   */\n      swap1\n      pop\n        /* \"#utility.yul\":6312:6453   */\n      swap2\n      swap1\n      pop\n      jump\t// out\n        /* \"#utility.yul\":6459:6552   */\n    tag_72:\n        /* \"#utility.yul\":6496:6502   */\n      0x00\n        /* \"#utility.yul\":6543:6545   */\n      0x20\n        /* \"#utility.yul\":6538:6540   */\n      0x1f\n        /* \"#utility.yul\":6531:6536   */\n      dup4\n        /* \"#utility.yul\":6527:6541   */\n      add\n        /* \"#utility.yul\":6523:6546   */\n      div\n        /* \"#utility.yul\":6513:6546   */\n      swap1\n      pop\n        /* \"#utility.yul\":6459:6552   */\n      swap2\n      swap1\n      pop\n      jump\t// out\n        /* \"#utility.yul\":6558:6665   */\n    tag_73:\n        /* \"#utility.yul\":6602:6610   */\n      0x00\n        /* \"#utility.yul\":6652:6657   */\n      dup3\n        /* \"#utility.yul\":6646:6650   */\n      dup3\n        /* \"#utility.yul\":6642:6658   */\n      shl\n        /* \"#utility.yul\":6621:6658   */\n      swap1\n      pop\n        /* \"#utility.yul\":6558:6665   */\n      swap3\n      swap2\n      pop\n      pop\n      jump\t// out\n        /* \"#utility.yul\":6671:7064   */\n    tag_74:\n        /* \"#utility.yul\":6740:6746   */\n      0x00\n        /* \"#utility.yul\":6790:6791   */\n      0x08\n        /* \"#utility.yul\":6778:6788   */\n      dup4\n        /* \"#utility.yul\":6774:6792   */\n      mul\n        /* \"#utility.yul\":6813:6910   */\n      tag_164\n        /* \"#utility.yul\":6843:6909   */\n      0xffffffffffffffffffffffffffffffffffffffffffffffffffffffffffffffff\n        /* \"#utility.yul\":6832:6841   */\n      dup3\n        /* \"#utility.yul\":6813:6910   */\n      tag_73\n      jump\t// in\n    tag_164:\n        /* \"#utility.yul\":6931:6970   */\n      tag_165\n        /* \"#utility.yul\":6961:6969   */\n      dup7\n        /* \"#utility.yul\":6950:6959   */\n      dup4\n        /* \"#utility.yul\":6931:6970   */\n      tag_73\n      jump\t// in\n    tag_165:\n        /* \"#utility.yul\":6919:6970   */\n      swap6\n      pop\n        /* \"#utility.yul\":7003:7007   */\n      dup1\n        /* \"#utility.yul\":6999:7008   */\n      not\n        /* \"#utility.yul\":6992:6997   */\n      dup5\n        /* \"#utility.yul\":6988:7009   */\n      and\n        /* \"#utility.yul\":6979:7009   */\n      swap4\n      pop\n        /* \"#utility.yul\":7052:7056   */\n      dup1\n        /* \"#utility.yul\":7042:7050   */\n      dup7\n        /* \"#utility.yul\":7038:7057   */\n      and\n        /* \"#utility.yul\":7031:7036   */\n      dup5\n        /* \"#utility.yul\":7028:7058   */\n      or\n        /* \"#utility.yul\":7018:7058   */\n      swap3\n      pop\n        /* \"#utility.yul\":6747:7064   */\n      pop\n      pop\n        /* \"#utility.yul\":6671:7064   */\n      swap4\n      swap3\n      pop\n      pop\n      pop\n      jump\t// out\n        /* \"#utility.yul\":7070:7147   */\n    tag_75:\n        /* \"#utility.yul\":7107:7114   */\n      0x00\n        /* \"#utility.yul\":7136:7141   */\n      dup2\n        /* \"#utility.yul\":7125:7141   */\n      swap1\n      pop\n        /* \"#utility.yul\":7070:7147   */\n      swap2\n      swap1\n      pop\n      jump\t// out\n        /* \"#utility.yul\":7153:7213   */\n    tag_76:\n        /* \"#utility.yul\":7181:7184   */\n      0x00\n        /* \"#utility.yul\":7202:7207   */\n      dup2\n        /* \"#utility.yul\":7195:7207   */\n      swap1\n      pop\n        /* \"#utility.yul\":7153:7213   */\n      swap2\n      swap1\n      pop\n      jump\t// out\n        /* \"#utility.yul\":7219:7361   */\n    tag_77:\n        /* \"#utility.yul\":7269:7278   */\n      0x00\n        /* \"#utility.yul\":7302:7355   */\n      tag_169\n        /* \"#utility.yul\":7320:7354   */\n      tag_170\n        /* \"#utility.yul\":7329:7353   */\n      tag_171\n        /* \"#utility.yul\":7347:7352   */\n      dup5\n        /* \"#utility.yul\":7329:7353   */\n      tag_75\n      jump\t// in\n    tag_171:\n        /* \"#utility.yul\":7320:7354   */\n      tag_76\n      jump\t// in\n    tag_170:\n        /* \"#utility.yul\":7302:7355   */\n      tag_75\n      jump\t// in\n    tag_169:\n        /* \"#utility.yul\":7289:7355   */\n      swap1\n      pop\n        /* \"#utility.yul\":7219:7361   */\n      swap2\n      swap1\n      pop\n      jump\t// out\n        /* \"#utility.yul\":7367:7442   */\n    tag_78:\n        /* \"#utility.yul\":7410:7413   */\n      0x00\n        /* \"#utility.yul\":7431:7436   */\n      dup2\n        /* \"#utility.yul\":7424:7436   */\n      swap1\n      pop\n        /* \"#utility.yul\":7367:7442   */\n      swap2\n      swap1\n      pop\n      jump\t// out\n        /* \"#utility.yul\":7448:7717   */\n    tag_79:\n        /* \"#utility.yul\":7558:7597   */\n      tag_174\n        /* \"#utility.yul\":7589:7596   */\n      dup4\n        /* \"#utility.yul\":7558:7597   */\n      tag_77\n      jump\t// in\n    tag_174:\n        /* \"#utility.yul\":7619:7710   */\n      tag_175\n        /* \"#utility.yul\":7668:7709   */\n      tag_176\n        /* \"#utility.yul\":7692:7708   */\n      dup3\n        /* \"#utility.yul\":7668:7709   */\n      tag_78\n      jump\t// in\n    tag_176:\n        /* \"#utility.yul\":7660:7666   */\n      dup5\n        /* \"#utility.yul\":7653:7657   */\n      dup5\n        /* \"#utility.yul\":7647:7658   */\n      sload\n        /* \"#utility.yul\":7619:7710   */\n      tag_74\n      jump\t// in\n    tag_175:\n        /* \"#utility.yul\":7613:7617   */\n      dup3\n        /* \"#utility.yul\":7606:7711   */\n      sstore\n        /* \"#utility.yul\":7524:7717   */\n      pop\n        /* \"#utility.yul\":7448:7717   */\n      pop\n      pop\n      pop\n      jump\t// out\n        /* \"#utility.yul\":7723:7796   */\n    tag_80:\n        /* \"#utility.yul\":7768:7771   */\n      0x00\n        /* \"#utility.yul\":7723:7796   */\n      swap1\n      jump\t// out\n        /* \"#utility.yul\":7802:7991   */\n    tag_81:\n        /* \"#utility.yul\":7879:7911   */\n      tag_179\n      tag_80\n      jump\t// in\n    tag_179:\n        /* \"#utility.yul\":7920:7985   */\n      tag_180\n        /* \"#utility.yul\":7978:7984   */\n      dup2\n        /* \"#utility.yul\":7970:7976   */\n      dup5\n        /* \"#utility.yul\":7964:7968   */\n      dup5\n        /* \"#utility.yul\":7920:7985   */\n      tag_79\n      jump\t// in\n    tag_180:\n        /* \"#utility.yul\":7855:7991   */\n      pop\n        /* \"#utility.yul\":7802:7991   */\n      pop\n      pop\n      jump\t// out\n        /* \"#utility.yul\":7997:8183   */\n    tag_82:\n        /* \"#utility.yul\":8057:8177   */\n    tag_182:\n        /* \"#utility.yul\":8074:8077   */\n      dup2\n        /* \"#utility.yul\":8067:8072   */\n      dup2\n        /* \"#utility.yul\":8064:8078   */\n      lt\n        /* \"#utility.yul\":8057:8177   */\n      iszero\n      tag_184\n      jumpi\n        /* \"#utility.yul\":8128:8167   */\n      tag_185\n        /* \"#utility.yul\":8165:8166   */\n      0x00\n        /* \"#utility.yul\":8158:8163   */\n      dup3\n        /* \"#utility.yul\":8128:8167   */\n      tag_81\n      jump\t// in\n    tag_185:\n        /* \"#utility.yul\":8101:8102   */\n      0x01\n        /* \"#utility.yul\":8094:8099   */\n      dup2\n        /* \"#utility.yul\":8090:8103   */\n      add\n        /* \"#utility.yul\":8081:8103   */\n      swap1\n      pop\n        /* \"#utility.yul\":8057:8177   */\n      jump(tag_182)\n    tag_184:\n        /* \"#utility.yul\":7997:8183   */\n      pop\n      pop\n      jump\t// out\n        /* \"#utility.yul\":8189:8732   */\n    tag_83:\n        /* \"#utility.yul\":8290:8292   */\n      0x1f\n        /* \"#utility.yul\":8285:8288   */\n      dup3\n        /* \"#utility.yul\":8282:8293   */\n      gt\n        /* \"#utility.yul\":8279:8725   */\n      iszero\n      tag_187\n      jumpi\n        /* \"#utility.yul\":8324:8362   */\n      tag_188\n        /* \"#utility.yul\":8356:8361   */\n      dup2\n        /* \"#utility.yul\":8324:8362   */\n      tag_71\n      jump\t// in\n    tag_188:\n        /* \"#utility.yul\":8408:8437   */\n      tag_189\n        /* \"#utility.yul\":8426:8436   */\n      dup5\n        /* \"#utility.yul\":8408:8437   */\n      tag_72\n      jump\t// in\n    tag_189:\n        /* \"#utility.yul\":8398:8406   */\n      dup2\n        /* \"#utility.yul\":8394:8438   */\n      add\n        /* \"#utility.yul\":8591:8593   */\n      0x20\n        /* \"#utility.yul\":8579:8589   */\n      dup6\n        /* \"#utility.yul\":8576:8594   */\n      lt\n        /* \"#utility.yul\":8573:8622   */\n      iszero\n      tag_190\n      jumpi\n        /* \"#utility.yul\":8612:8620   */\n      dup2\n        /* \"#utility.yul\":8597:8620   */\n      swap1\n      pop\n        /* \"#utility.yul\":8573:8622   */\n    tag_190:\n        /* \"#utility.yul\":8635:8715   */\n      tag_191\n        /* \"#utility.yul\":8691:8713   */\n      tag_192\n        /* \"#utility.yul\":8709:8712   */\n      dup6\n        /* \"#utility.yul\":8691:8713   */\n      tag_72\n      jump\t// in\n    tag_192:\n        /* \"#utility.yul\":8681:8689   */\n      dup4\n        /* \"#utility.yul\":8677:8714   */\n      add\n        /* \"#utility.yul\":8664:8675   */\n      dup3\n        /* \"#utility.yul\":8635:8715   */\n      tag_82\n      jump\t// in\n    tag_191:\n        /* \"#utility.yul\":8294:8725   */\n      pop\n      pop\n        /* \"#utility.yul\":8279:8725   */\n    tag_187:\n        /* \"#utility.yul\":8189:8732   */\n      pop\n      pop\n      pop\n      jump\t// out\n        /* \"#utility.yul\":8738:8855   */\n    tag_84:\n        /* \"#utility.yul\":8792:8800   */\n      0x00\n        /* \"#utility.yul\":8842:8847   */\n      dup3\n        /* \"#utility.yul\":8836:8840   */\n      dup3\n        /* \"#utility.yul\":8832:8848   */\n      shr\n        /* \"#utility.yul\":8811:8848   */\n      swap1\n      pop\n        /* \"#utility.yul\":8738:8855   */\n      swap3\n      swap2\n      pop\n      pop\n      jump\t// out\n        /* \"#utility.yul\":8861:9030   */\n    tag_85:\n        /* \"#utility.yul\":8905:8911   */\n      0x00\n        /* \"#utility.yul\":8938:8989   */\n      tag_195\n        /* \"#utility.yul\":8986:8987   */\n      0x00\n        /* \"#utility.yul\":8982:8988   */\n      not\n        /* \"#utility.yul\":8974:8979   */\n      dup5\n        /* \"#utility.yul\":8971:8972   */\n      0x08\n        /* \"#utility.yul\":8967:8980   */\n      mul\n        /* \"#utility.yul\":8938:8989   */\n      tag_84\n      jump\t// in\n    tag_195:\n        /* \"#utility.yul\":8934:8990   */\n      not\n        /* \"#utility.yul\":9019:9023   */\n      dup1\n        /* \"#utility.yul\":9013:9017   */\n      dup4\n        /* \"#utility.yul\":9009:9024   */\n      and\n        /* \"#utility.yul\":8999:9024   */\n      swap2\n      pop\n        /* \"#utility.yul\":8912:9030   */\n      pop\n        /* \"#utility.yul\":8861:9030   */\n      swap3\n      swap2\n      pop\n      pop\n      jump\t// out\n        /* \"#utility.yul\":9035:9330   */\n    tag_86:\n        /* \"#utility.yul\":9111:9115   */\n      0x00\n        /* \"#utility.yul\":9257:9286   */\n      tag_197\n        /* \"#utility.yul\":9282:9285   */\n      dup4\n        /* \"#utility.yul\":9276:9280   */\n      dup4\n        /* \"#utility.yul\":9257:9286   */\n      tag_85\n      jump\t// in\n    tag_197:\n        /* \"#utility.yul\":9249:9286   */\n      swap2\n      pop\n        /* \"#utility.yul\":9319:9322   */\n      dup3\n        /* \"#utility.yul\":9316:9317   */\n      0x02\n        /* \"#utility.yul\":9312:9323   */\n      mul\n        /* \"#utility.yul\":9306:9310   */\n      dup3\n        /* \"#utility.yul\":9303:9324   */\n      or\n        /* \"#utility.yul\":9295:9324   */\n      swap1\n      pop\n        /* \"#utility.yul\":9035:9330   */\n      swap3\n      swap2\n      pop\n      pop\n      jump\t// out\n        /* \"#utility.yul\":9335:10730   */\n    tag_29:\n        /* \"#utility.yul\":9452:9489   */\n      tag_199\n        /* \"#utility.yul\":9485:9488   */\n      dup3\n        /* \"#utility.yul\":9452:9489   */\n      tag_66\n      jump\t// in\n    tag_199:\n        /* \"#utility.yul\":9554:9572   */\n      0xffffffffffffffff\n        /* \"#utility.yul\":9546:9552   */\n      dup2\n        /* \"#utility.yul\":9543:9573   */\n      gt\n        /* \"#utility.yul\":9540:9596   */\n      iszero\n      tag_200\n      jumpi\n        /* \"#utility.yul\":9576:9594   */\n      tag_201\n      tag_55\n      jump\t// in\n    tag_201:\n        /* \"#utility.yul\":9540:9596   */\n    tag_200:\n        /* \"#utility.yul\":9620:9658   */\n      tag_202\n        /* \"#utility.yul\":9652:9656   */\n      dup3\n        /* \"#utility.yul\":9646:9657   */\n      sload\n        /* \"#utility.yul\":9620:9658   */\n      tag_40\n      jump\t// in\n    tag_202:\n        /* \"#utility.yul\":9705:9772   */\n      tag_203\n        /* \"#utility.yul\":9765:9771   */\n      dup3\n        /* \"#utility.yul\":9757:9763   */\n      dup3\n        /* \"#utility.yul\":9751:9755   */\n      dup6\n        /* \"#utility.yul\":9705:9772   */\n      tag_83\n      jump\t// in\n    tag_203:\n        /* \"#utility.yul\":9799:9800   */\n      0x00\n        /* \"#utility.yul\":9823:9827   */\n      0x20\n        /* \"#utility.yul\":9810:9827   */\n      swap1\n      pop\n        /* \"#utility.yul\":9855:9857   */\n      0x1f\n        /* \"#utility.yul\":9847:9853   */\n      dup4\n        /* \"#utility.yul\":9844:9858   */\n      gt\n        /* \"#utility.yul\":9872:9873   */\n      0x01\n        /* \"#utility.yul\":9867:10485   */\n      dup2\n      eq\n      tag_205\n      jumpi\n        /* \"#utility.yul\":10529:10530   */\n      0x00\n        /* \"#utility.yul\":10546:10552   */\n      dup5\n        /* \"#utility.yul\":10543:10620   */\n      iszero\n      tag_206\n      jumpi\n        /* \"#utility.yul\":10595:10604   */\n      dup3\n        /* \"#utility.yul\":10590:10593   */\n      dup8\n        /* \"#utility.yul\":10586:10605   */\n      add\n        /* \"#utility.yul\":10580:10606   */\n      mload\n        /* \"#utility.yul\":10571:10606   */\n      swap1\n      pop\n        /* \"#utility.yul\":10543:10620   */\n    tag_206:\n        /* \"#utility.yul\":10646:10713   */\n      tag_207\n        /* \"#utility.yul\":10706:10712   */\n      dup6\n        /* \"#utility.yul\":10699:10704   */\n      dup3\n        /* \"#utility.yul\":10646:10713   */\n      tag_86\n      jump\t// in\n    tag_207:\n        /* \"#utility.yul\":10640:10644   */\n      dup7\n        /* \"#utility.yul\":10633:10714   */\n      sstore\n        /* \"#utility.yul\":10502:10724   */\n      pop\n        /* \"#utility.yul\":9837:10724   */\n      jump(tag_204)\n        /* \"#utility.yul\":9867:10485   */\n    tag_205:\n        /* \"#utility.yul\":9919:9923   */\n      0x1f\n        /* \"#utility.yul\":9915:9924   */\n      not\n        /* \"#utility.yul\":9907:9913   */\n      dup5\n        /* \"#utility.yul\":9903:9925   */\n      and\n        /* \"#utility.yul\":9953:9990   */\n      tag_208\n        /* \"#utility.yul\":9985:9989   */\n      dup7\n        /* \"#utility.yul\":9953:9990   */\n      tag_71\n      jump\t// in\n    tag_208:\n        /* \"#utility.yul\":10012:10013   */\n      0x00\n        /* \"#utility.yul\":10026:10234   */\n    tag_209:\n        /* \"#utility.yul\":10040:10047   */\n      dup3\n        /* \"#utility.yul\":10037:10038   */\n      dup2\n        /* \"#utility.yul\":10034:10048   */\n      lt\n        /* \"#utility.yul\":10026:10234   */\n      iszero\n      tag_211\n      jumpi\n        /* \"#utility.yul\":10119:10128   */\n      dup5\n        /* \"#utility.yul\":10114:10117   */\n      dup10\n        /* \"#utility.yul\":10110:10129   */\n      add\n        /* \"#utility.yul\":10104:10130   */\n      mload\n        /* \"#utility.yul\":10096:10102   */\n      dup3\n        /* \"#utility.yul\":10089:10131   */\n      sstore\n        /* \"#utility.yul\":10170:10171   */\n      0x01\n        /* \"#utility.yul\":10162:10168   */\n      dup3\n        /* \"#utility.yul\":10158:10172   */\n      add\n        /* \"#utility.yul\":10148:10172   */\n      swap2\n      pop\n        /* \"#utility.yul\":10217:10219   */\n      0x20\n        /* \"#utility.yul\":10206:10215   */\n      dup6\n        /* \"#utility.yul\":10202:10220   */\n      add\n        /* \"#utility.yul\":10189:10220   */\n      swap5\n      pop\n        /* \"#utility.yul\":10063:10067   */\n      0x20\n        /* \"#utility.yul\":10060:10061   */\n      dup2\n        /* \"#utility.yul\":10056:10068   */\n      add\n        /* \"#utility.yul\":10051:10068   */\n      swap1\n      pop\n        /* \"#utility.yul\":10026:10234   */\n      jump(tag_209)\n    tag_211:\n        /* \"#utility.yul\":10262:10268   */\n      dup7\n        /* \"#utility.yul\":10253:10260   */\n      dup4\n        /* \"#utility.yul\":10250:10269   */\n      lt\n        /* \"#utility.yul\":10247:10426   */\n      iszero\n      tag_212\n      jumpi\n        /* \"#utility.yul\":10320:10329   */\n      dup5\n        /* \"#utility.yul\":10315:10318   */\n      dup10\n        /* \"#utility.yul\":10311:10330   */\n      add\n        /* \"#utility.yul\":10305:10331   */\n      mload\n        /* \"#utility.yul\":10363:10411   */\n      tag_213\n        /* \"#utility.yul\":10405:10409   */\n      0x1f\n        /* \"#utility.yul\":10397:10403   */\n      dup10\n        /* \"#utility.yul\":10393:10410   */\n      and\n        /* \"#utility.yul\":10382:10391   */\n      dup3\n        /* \"#utility.yul\":10363:10411   */\n      tag_85\n      jump\t// in\n    tag_213:\n        /* \"#utility.yul\":10355:10361   */\n      dup4\n        /* \"#utility.yul\":10348:10412   */\n      sstore\n        /* \"#utility.yul\":10270:10426   */\n      pop\n        /* \"#utility.yul\":10247:10426   */\n    tag_212:\n        /* \"#utility.yul\":10472:10473   */\n      0x01\n        /* \"#utility.yul\":10468:10469   */\n      0x02\n        /* \"#utility.yul\":10460:10466   */\n      dup9\n        /* \"#utility.yul\":10456:10470   */\n      mul\n        /* \"#utility.yul\":10452:10474   */\n      add\n        /* \"#utility.yul\":10446:10450   */\n      dup9\n        /* \"#utility.yul\":10439:10475   */\n      sstore\n        /* \"#utility.yul\":9874:10485   */\n      pop\n      pop\n      pop\n        /* \"#utility.yul\":9837:10724   */\n    tag_204:\n      pop\n        /* \"#utility.yul\":9427:10730   */\n      pop\n      pop\n      pop\n        /* \"#utility.yul\":9335:10730   */\n      pop\n      pop\n      jump\t// out\n        /* \"#utility.yul\":10736:10916   */\n    tag_33:\n        /* \"#utility.yul\":10784:10861   */\n      0x4e487b7100000000000000000000000000000000000000000000000000000000\n        /* \"#utility.yul\":10781:10782   */\n      0x00\n        /* \"#utility.yul\":10774:10862   */\n      mstore\n        /* \"#utility.yul\":10881:10885   */\n      0x32\n        /* \"#utility.yul\":10878:10879   */\n      0x04\n        /* \"#utility.yul\":10871:10886   */\n      mstore\n        /* \"#utility.yul\":10905:10909   */\n      0x24\n        /* \"#utility.yul\":10902:10903   */\n      0x00\n        /* \"#utility.yul\":10895:10910   */\n      revert\n\n    auxdata: 0xa264697066735822122046ff348dba792f82e02c07bcb9fde264cbf2459f76f27ea7ca55e214228b9e1164736f6c63430008120033\n}\n",
				"bytecode": {
					"linkReferences": {},
					"object": "60806040527f416c69636500000000000000000000000000000000000000000000000000000060035534801561003457600080fd5b506108a7806100446000396000f3fe608060405234801561001057600080fd5b506004361061004c5760003560e01c806311456b471461005157806347e12f8c1461006d578063618b220f1461009d5780639df92b91146100cd575b600080fd5b61006b600480360381019061006691906103a0565b6100e9565b005b61008760048036038101906100829190610422565b610121565b604051610094919061045e565b60405180910390f35b6100b760048036038101906100b29190610422565b610157565b6040516100c491906104f8565b60405180910390f35b6100e760048036038101906100e2919061051a565b61020a565b005b60068190806001815401808255809150506001900390600052602060002001600090919091909150908161011d9190610770565b5050565b600060058260ff16600a811061013a57610139610842565b5b602091828204019190069054906101000a900460ff169050919050565b606060068260ff16815481106101705761016f610842565b5b90600052602060002001805461018590610589565b80601f01602080910402602001604051908101604052809291908181526020018280546101b190610589565b80156101fe5780601f106101d3576101008083540402835291602001916101fe565b820191906000526020600020905b8154815290600101906020018083116101e157829003601f168201915b50505050509050919050565b8060058360ff16600a811061022257610221610842565b5b602091828204019190066101000a81548160ff021916908360ff1602179055505050565b6000604051905090565b600080fd5b600080fd5b600080fd5b600080fd5b6000601f19601f8301169050919050565b7f4e487b7100000000000000000000000000000000000000000000000000000000600052604160045260246000fd5b6102ad82610264565b810181811067ffffffffffffffff821117156102cc576102cb610275565b5b80604052505050565b60006102df610246565b90506102eb82826102a4565b919050565b600067ffffffffffffffff82111561030b5761030a610275565b5b61031482610264565b9050602081019050919050565b82818337600083830152505050565b600061034361033e846102f0565b6102d5565b90508281526020810184848401111561035f5761035e61025f565b5b61036a848285610321565b509392505050565b600082601f8301126103875761038661025a565b5b8135610397848260208601610330565b91505092915050565b6000602082840312156103b6576103b5610250565b5b600082013567ffffffffffffffff8111156103d4576103d3610255565b5b6103e084828501610372565b91505092915050565b600060ff82169050919050565b6103ff816103e9565b811461040a57600080fd5b50565b60008135905061041c816103f6565b92915050565b60006020828403121561043857610437610250565b5b60006104468482850161040d565b91505092915050565b610458816103e9565b82525050565b6000602082019050610473600083018461044f565b92915050565b600081519050919050565b600082825260208201905092915050565b60005b838110156104b3578082015181840152602081019050610498565b60008484015250505050565b60006104ca82610479565b6104d48185610484565b93506104e4818560208601610495565b6104ed81610264565b840191505092915050565b6000602082019050818103600083015261051281846104bf565b905092915050565b6000806040838503121561053157610530610250565b5b600061053f8582860161040d565b92505060206105508582860161040d565b9150509250929050565b7f4e487b7100000000000000000000000000000000000000000000000000000000600052602260045260246000fd5b600060028204905060018216806105a157607f821691505b6020821081036105b4576105b361055a565b5b50919050565b60008190508160005260206000209050919050565b60006020601f8301049050919050565b600082821b905092915050565b60006008830261061c7fffffffffffffffffffffffffffffffffffffffffffffffffffffffffffffffff826105df565b61062686836105df565b95508019841693508086168417925050509392505050565b6000819050919050565b6000819050919050565b600061066d6106686106638461063e565b610648565b61063e565b9050919050565b6000819050919050565b61068783610652565b61069b61069382610674565b8484546105ec565b825550505050565b600090565b6106b06106a3565b6106bb81848461067e565b505050565b5b818110156106df576106d46000826106a8565b6001810190506106c1565b5050565b601f821115610724576106f5816105ba565b6106fe846105cf565b8101602085101561070d578190505b610721610719856105cf565b8301826106c0565b50505b505050565b600082821c905092915050565b600061074760001984600802610729565b1980831691505092915050565b60006107608383610736565b9150826002028217905092915050565b61077982610479565b67ffffffffffffffff81111561079257610791610275565b5b61079c8254610589565b6107a78282856106e3565b600060209050601f8311600181146107da57600084156107c8578287015190505b6107d28582610754565b86555061083a565b601f1984166107e8866105ba565b60005b82811015610810578489015182556001820191506020850194506020810190506107eb565b8683101561082d5784890151610829601f891682610736565b8355505b6001600288020188555050505b505050505050565b7f4e487b7100000000000000000000000000000000000000000000000000000000600052603260045260246000fdfea264697066735822122046ff348dba792f82e02c07bcb9fde264cbf2459f76f27ea7ca55e214228b9e1164736f6c63430008120033",
					"opcodes": "PUSH1 0x80 PUSH1 0x40 MSTORE PUSH32 0x416C696365000000000000000000000000000000000000000000000000000000 PUSH1 0x3 SSTORE CALLVALUE DUP1 ISZERO PUSH2 0x34 JUMPI PUSH1 0x0 DUP1 REVERT JUMPDEST POP PUSH2 0x8A7 DUP1 PUSH2 0x44 PUSH1 0x0 CODECOPY PUSH1 0x0 RETURN INVALID PUSH1 0x80 PUSH1 0x40 MSTORE CALLVALUE DUP1 ISZERO PUSH2 0x10 JUMPI PUSH1 0x0 DUP1 REVERT JUMPDEST POP PUSH1 0x4 CALLDATASIZE LT PUSH2 0x4C JUMPI PUSH1 0x0 CALLDATALOAD PUSH1 0xE0 SHR DUP1 PUSH4 0x11456B47 EQ PUSH2 0x51 JUMPI DUP1 PUSH4 0x47E12F8C EQ PUSH2 0x6D JUMPI DUP1 PUSH4 0x618B220F EQ PUSH2 0x9D JUMPI DUP1 PUSH4 0x9DF92B91 EQ PUSH2 0xCD JUMPI JUMPDEST PUSH1 0x0 DUP1 REVERT JUMPDEST PUSH2 0x6B PUSH1 0x4 DUP1 CALLDATASIZE SUB DUP2 ADD SWAP1 PUSH2 0x66 SWAP2 SWAP1 PUSH2 0x3A0 JUMP JUMPDEST PUSH2 0xE9 JUMP JUMPDEST STOP JUMPDEST PUSH2 0x87 PUSH1 0x4 DUP1 CALLDATASIZE SUB DUP2 ADD SWAP1 PUSH2 0x82 SWAP2 SWAP1 PUSH2 0x422 JUMP JUMPDEST PUSH2 0x121 JUMP JUMPDEST PUSH1 0x40 MLOAD PUSH2 0x94 SWAP2 SWAP1 PUSH2 0x45E JUMP JUMPDEST PUSH1 0x40 MLOAD DUP1 SWAP2 SUB SWAP1 RETURN JUMPDEST PUSH2 0xB7 PUSH1 0x4 DUP1 CALLDATASIZE SUB DUP2 ADD SWAP1 PUSH2 0xB2 SWAP2 SWAP1 PUSH2 0x422 JUMP JUMPDEST PUSH2 0x157 JUMP JUMPDEST PUSH1 0x40 MLOAD PUSH2 0xC4 SWAP2 SWAP1 PUSH2 0x4F8 JUMP JUMPDEST PUSH1 0x40 MLOAD DUP1 SWAP2 SUB SWAP1 RETURN JUMPDEST PUSH2 0xE7 PUSH1 0x4 DUP1 CALLDATASIZE SUB DUP2 ADD SWAP1 PUSH2 0xE2 SWAP2 SWAP1 PUSH2 0x51A JUMP JUMPDEST PUSH2 0x20A JUMP JUMPDEST STOP JUMPDEST PUSH1 0x6 DUP2 SWAP1 DUP1 PUSH1 0x1 DUP2 SLOAD ADD DUP1 DUP3 SSTORE DUP1 SWAP2 POP POP PUSH1 0x1 SWAP1 SUB SWAP1 PUSH1 0x0 MSTORE PUSH1 0x20 PUSH1 0x0 KECCAK256 ADD PUSH1 0x0 SWAP1 SWAP2 SWAP1 SWAP2 SWAP1 SWAP2 POP SWAP1 DUP2 PUSH2 0x11D SWAP2 SWAP1 PUSH2 0x770 JUMP JUMPDEST POP POP JUMP JUMPDEST PUSH1 0x0 PUSH1 0x5 DUP3 PUSH1 0xFF AND PUSH1 0xA DUP2 LT PUSH2 0x13A JUMPI PUSH2 0x139 PUSH2 0x842 JUMP JUMPDEST JUMPDEST PUSH1 0x20 SWAP2 DUP3 DUP3 DIV ADD SWAP2 SWAP1 MOD SWAP1 SLOAD SWAP1 PUSH2 0x100 EXP SWAP1 DIV PUSH1 0xFF AND SWAP1 POP SWAP2 SWAP1 POP JUMP JUMPDEST PUSH1 0x60 PUSH1 0x6 DUP3 PUSH1 0xFF AND DUP2 SLOAD DUP2 LT PUSH2 0x170 JUMPI PUSH2 0x16F PUSH2 0x842 JUMP JUMPDEST JUMPDEST SWAP1 PUSH1 0x0 MSTORE PUSH1 0x20 PUSH1 0x0 KECCAK256 ADD DUP1 SLOAD PUSH2 0x185 SWAP1 PUSH2 0x589 JUMP JUMPDEST DUP1 PUSH1 0x1F ADD PUSH1 0x20 DUP1 SWAP2 DIV MUL PUSH1 0x20 ADD PUSH1 0x40 MLOAD SWAP1 DUP2 ADD PUSH1 0x40 MSTORE DUP1 SWAP3 SWAP2 SWAP1 DUP2 DUP2 MSTORE PUSH1 0x20 ADD DUP3 DUP1 SLOAD PUSH2 0x1B1 SWAP1 PUSH2 0x589 JUMP JUMPDEST DUP1 ISZERO PUSH2 0x1FE JUMPI DUP1 PUSH1 0x1F LT PUSH2 0x1D3 JUMPI PUSH2 0x100 DUP1 DUP4 SLOAD DIV MUL DUP4 MSTORE SWAP2 PUSH1 0x20 ADD SWAP2 PUSH2 0x1FE JUMP JUMPDEST DUP3 ADD SWAP2 SWAP1 PUSH1 0x0 MSTORE PUSH1 0x20 PUSH1 0x0 KECCAK256 SWAP1 JUMPDEST DUP2 SLOAD DUP2 MSTORE SWAP1 PUSH1 0x1 ADD SWAP1 PUSH1 0x20 ADD DUP1 DUP4 GT PUSH2 0x1E1 JUMPI DUP3 SWAP1 SUB PUSH1 0x1F AND DUP3 ADD SWAP2 JUMPDEST POP POP POP POP POP SWAP1 POP SWAP2 SWAP1 POP JUMP JUMPDEST DUP1 PUSH1 0x5 DUP4 PUSH1 0xFF AND PUSH1 0xA DUP2 LT PUSH2 0x222 JUMPI PUSH2 0x221 PUSH2 0x842 JUMP JUMPDEST JUMPDEST PUSH1 0x20 SWAP2 DUP3 DUP3 DIV ADD SWAP2 SWAP1 MOD PUSH2 0x100 EXP DUP2 SLOAD DUP2 PUSH1 0xFF MUL NOT AND SWAP1 DUP4 PUSH1 0xFF AND MUL OR SWAP1 SSTORE POP POP POP JUMP JUMPDEST PUSH1 0x0 PUSH1 0x40 MLOAD SWAP1 POP SWAP1 JUMP JUMPDEST PUSH1 0x0 DUP1 REVERT JUMPDEST PUSH1 0x0 DUP1 REVERT JUMPDEST PUSH1 0x0 DUP1 REVERT JUMPDEST PUSH1 0x0 DUP1 REVERT JUMPDEST PUSH1 0x0 PUSH1 0x1F NOT PUSH1 0x1F DUP4 ADD AND SWAP1 POP SWAP2 SWAP1 POP JUMP JUMPDEST PUSH32 0x4E487B7100000000000000000000000000000000000000000000000000000000 PUSH1 0x0 MSTORE PUSH1 0x41 PUSH1 0x4 MSTORE PUSH1 0x24 PUSH1 0x0 REVERT JUMPDEST PUSH2 0x2AD DUP3 PUSH2 0x264 JUMP JUMPDEST DUP2 ADD DUP2 DUP2 LT PUSH8 0xFFFFFFFFFFFFFFFF DUP3 GT OR ISZERO PUSH2 0x2CC JUMPI PUSH2 0x2CB PUSH2 0x275 JUMP JUMPDEST JUMPDEST DUP1 PUSH1 0x40 MSTORE POP POP POP JUMP JUMPDEST PUSH1 0x0 PUSH2 0x2DF PUSH2 0x246 JUMP JUMPDEST SWAP1 POP PUSH2 0x2EB DUP3 DUP3 PUSH2 0x2A4 JUMP JUMPDEST SWAP2 SWAP1 POP JUMP JUMPDEST PUSH1 0x0 PUSH8 0xFFFFFFFFFFFFFFFF DUP3 GT ISZERO PUSH2 0x30B JUMPI PUSH2 0x30A PUSH2 0x275 JUMP JUMPDEST JUMPDEST PUSH2 0x314 DUP3 PUSH2 0x264 JUMP JUMPDEST SWAP1 POP PUSH1 0x20 DUP2 ADD SWAP1 POP SWAP2 SWAP1 POP JUMP JUMPDEST DUP3 DUP2 DUP4 CALLDATACOPY PUSH1 0x0 DUP4 DUP4 ADD MSTORE POP POP POP JUMP JUMPDEST PUSH1 0x0 PUSH2 0x343 PUSH2 0x33E DUP5 PUSH2 0x2F0 JUMP JUMPDEST PUSH2 0x2D5 JUMP JUMPDEST SWAP1 POP DUP3 DUP2 MSTORE PUSH1 0x20 DUP2 ADD DUP5 DUP5 DUP5 ADD GT ISZERO PUSH2 0x35F JUMPI PUSH2 0x35E PUSH2 0x25F JUMP JUMPDEST JUMPDEST PUSH2 0x36A DUP5 DUP3 DUP6 PUSH2 0x321 JUMP JUMPDEST POP SWAP4 SWAP3 POP POP POP JUMP JUMPDEST PUSH1 0x0 DUP3 PUSH1 0x1F DUP4 ADD SLT PUSH2 0x387 JUMPI PUSH2 0x386 PUSH2 0x25A JUMP JUMPDEST JUMPDEST DUP2 CALLDATALOAD PUSH2 0x397 DUP5 DUP3 PUSH1 0x20 DUP7 ADD PUSH2 0x330 JUMP JUMPDEST SWAP2 POP POP SWAP3 SWAP2 POP POP JUMP JUMPDEST PUSH1 0x0 PUSH1 0x20 DUP3 DUP5 SUB SLT ISZERO PUSH2 0x3B6 JUMPI PUSH2 0x3B5 PUSH2 0x250 JUMP JUMPDEST JUMPDEST PUSH1 0x0 DUP3 ADD CALLDATALOAD PUSH8 0xFFFFFFFFFFFFFFFF DUP2 GT ISZERO PUSH2 0x3D4 JUMPI PUSH2 0x3D3 PUSH2 0x255 JUMP JUMPDEST JUMPDEST PUSH2 0x3E0 DUP5 DUP3 DUP6 ADD PUSH2 0x372 JUMP JUMPDEST SWAP2 POP POP SWAP3 SWAP2 POP POP JUMP JUMPDEST PUSH1 0x0 PUSH1 0xFF DUP3 AND SWAP1 POP SWAP2 SWAP1 POP JUMP JUMPDEST PUSH2 0x3FF DUP2 PUSH2 0x3E9 JUMP JUMPDEST DUP2 EQ PUSH2 0x40A JUMPI PUSH1 0x0 DUP1 REVERT JUMPDEST POP JUMP JUMPDEST PUSH1 0x0 DUP2 CALLDATALOAD SWAP1 POP PUSH2 0x41C DUP2 PUSH2 0x3F6 JUMP JUMPDEST SWAP3 SWAP2 POP POP JUMP JUMPDEST PUSH1 0x0 PUSH1 0x20 DUP3 DUP5 SUB SLT ISZERO PUSH2 0x438 JUMPI PUSH2 0x437 PUSH2 0x250 JUMP JUMPDEST JUMPDEST PUSH1 0x0 PUSH2 0x446 DUP5 DUP3 DUP6 ADD PUSH2 0x40D JUMP JUMPDEST SWAP2 POP POP SWAP3 SWAP2 POP POP JUMP JUMPDEST PUSH2 0x458 DUP2 PUSH2 0x3E9 JUMP JUMPDEST DUP3 MSTORE POP POP JUMP JUMPDEST PUSH1 0x0 PUSH1 0x20 DUP3 ADD SWAP1 POP PUSH2 0x473 PUSH1 0x0 DUP4 ADD DUP5 PUSH2 0x44F JUMP JUMPDEST SWAP3 SWAP2 POP POP JUMP JUMPDEST PUSH1 0x0 DUP2 MLOAD SWAP1 POP SWAP2 SWAP1 POP JUMP JUMPDEST PUSH1 0x0 DUP3 DUP3 MSTORE PUSH1 0x20 DUP3 ADD SWAP1 POP SWAP3 SWAP2 POP POP JUMP JUMPDEST PUSH1 0x0 JUMPDEST DUP4 DUP2 LT ISZERO PUSH2 0x4B3 JUMPI DUP1 DUP3 ADD MLOAD DUP2 DUP5 ADD MSTORE PUSH1 0x20 DUP2 ADD SWAP1 POP PUSH2 0x498 JUMP JUMPDEST PUSH1 0x0 DUP5 DUP5 ADD MSTORE POP POP POP POP JUMP JUMPDEST PUSH1 0x0 PUSH2 0x4CA DUP3 PUSH2 0x479 JUMP JUMPDEST PUSH2 0x4D4 DUP2 DUP6 PUSH2 0x484 JUMP JUMPDEST SWAP4 POP PUSH2 0x4E4 DUP2 DUP6 PUSH1 0x20 DUP7 ADD PUSH2 0x495 JUMP JUMPDEST PUSH2 0x4ED DUP2 PUSH2 0x264 JUMP JUMPDEST DUP5 ADD SWAP2 POP POP SWAP3 SWAP2 POP POP JUMP JUMPDEST PUSH1 0x0 PUSH1 0x20 DUP3 ADD SWAP1 POP DUP2 DUP2 SUB PUSH1 0x0 DUP4 ADD MSTORE PUSH2 0x512 DUP2 DUP5 PUSH2 0x4BF JUMP JUMPDEST SWAP1 POP SWAP3 SWAP2 POP POP JUMP JUMPDEST PUSH1 0x0 DUP1 PUSH1 0x40 DUP4 DUP6 SUB SLT ISZERO PUSH2 0x531 JUMPI PUSH2 0x530 PUSH2 0x250 JUMP JUMPDEST JUMPDEST PUSH1 0x0 PUSH2 0x53F DUP6 DUP3 DUP7 ADD PUSH2 0x40D JUMP JUMPDEST SWAP3 POP POP PUSH1 0x20 PUSH2 0x550 DUP6 DUP3 DUP7 ADD PUSH2 0x40D JUMP JUMPDEST SWAP2 POP POP SWAP3 POP SWAP3 SWAP1 POP JUMP JUMPDEST PUSH32 0x4E487B7100000000000000000000000000000000000000000000000000000000 PUSH1 0x0 MSTORE PUSH1 0x22 PUSH1 0x4 MSTORE PUSH1 0x24 PUSH1 0x0 REVERT JUMPDEST PUSH1 0x0 PUSH1 0x2 DUP3 DIV SWAP1 POP PUSH1 0x1 DUP3 AND DUP1 PUSH2 0x5A1 JUMPI PUSH1 0x7F DUP3 AND SWAP2 POP JUMPDEST PUSH1 0x20 DUP3 LT DUP2 SUB PUSH2 0x5B4 JUMPI PUSH2 0x5B3 PUSH2 0x55A JUMP JUMPDEST JUMPDEST POP SWAP2 SWAP1 POP JUMP JUMPDEST PUSH1 0x0 DUP2 SWAP1 POP DUP2 PUSH1 0x0 MSTORE PUSH1 0x20 PUSH1 0x0 KECCAK256 SWAP1 POP SWAP2 SWAP1 POP JUMP JUMPDEST PUSH1 0x0 PUSH1 0x20 PUSH1 0x1F DUP4 ADD DIV SWAP1 POP SWAP2 SWAP1 POP JUMP JUMPDEST PUSH1 0x0 DUP3 DUP3 SHL SWAP1 POP SWAP3 SWAP2 POP POP JUMP JUMPDEST PUSH1 0x0 PUSH1 0x8 DUP4 MUL PUSH2 0x61C PUSH32 0xFFFFFFFFFFFFFFFFFFFFFFFFFFFFFFFFFFFFFFFFFFFFFFFFFFFFFFFFFFFFFFFF DUP3 PUSH2 0x5DF JUMP JUMPDEST PUSH2 0x626 DUP7 DUP4 PUSH2 0x5DF JUMP JUMPDEST SWAP6 POP DUP1 NOT DUP5 AND SWAP4 POP DUP1 DUP7 AND DUP5 OR SWAP3 POP POP POP SWAP4 SWAP3 POP POP POP JUMP JUMPDEST PUSH1 0x0 DUP2 SWAP1 POP SWAP2 SWAP1 POP JUMP JUMPDEST PUSH1 0x0 DUP2 SWAP1 POP SWAP2 SWAP1 POP JUMP JUMPDEST PUSH1 0x0 PUSH2 0x66D PUSH2 0x668 PUSH2 0x663 DUP5 PUSH2 0x63E JUMP JUMPDEST PUSH2 0x648 JUMP JUMPDEST PUSH2 0x63E JUMP JUMPDEST SWAP1 POP SWAP2 SWAP1 POP JUMP JUMPDEST PUSH1 0x0 DUP2 SWAP1 POP SWAP2 SWAP1 POP JUMP JUMPDEST PUSH2 0x687 DUP4 PUSH2 0x652 JUMP JUMPDEST PUSH2 0x69B PUSH2 0x693 DUP3 PUSH2 0x674 JUMP JUMPDEST DUP5 DUP5 SLOAD PUSH2 0x5EC JUMP JUMPDEST DUP3 SSTORE POP POP POP POP JUMP JUMPDEST PUSH1 0x0 SWAP1 JUMP JUMPDEST PUSH2 0x6B0 PUSH2 0x6A3 JUMP JUMPDEST PUSH2 0x6BB DUP2 DUP5 DUP5 PUSH2 0x67E JUMP JUMPDEST POP POP POP JUMP JUMPDEST JUMPDEST DUP2 DUP2 LT ISZERO PUSH2 0x6DF JUMPI PUSH2 0x6D4 PUSH1 0x0 DUP3 PUSH2 0x6A8 JUMP JUMPDEST PUSH1 0x1 DUP2 ADD SWAP1 POP PUSH2 0x6C1 JUMP JUMPDEST POP POP JUMP JUMPDEST PUSH1 0x1F DUP3 GT ISZERO PUSH2 0x724 JUMPI PUSH2 0x6F5 DUP2 PUSH2 0x5BA JUMP JUMPDEST PUSH2 0x6FE DUP5 PUSH2 0x5CF JUMP JUMPDEST DUP2 ADD PUSH1 0x20 DUP6 LT ISZERO PUSH2 0x70D JUMPI DUP2 SWAP1 POP JUMPDEST PUSH2 0x721 PUSH2 0x719 DUP6 PUSH2 0x5CF JUMP JUMPDEST DUP4 ADD DUP3 PUSH2 0x6C0 JUMP JUMPDEST POP POP JUMPDEST POP POP POP JUMP JUMPDEST PUSH1 0x0 DUP3 DUP3 SHR SWAP1 POP SWAP3 SWAP2 POP POP JUMP JUMPDEST PUSH1 0x0 PUSH2 0x747 PUSH1 0x0 NOT DUP5 PUSH1 0x8 MUL PUSH2 0x729 JUMP JUMPDEST NOT DUP1 DUP4 AND SWAP2 POP POP SWAP3 SWAP2 POP POP JUMP JUMPDEST PUSH1 0x0 PUSH2 0x760 DUP4 DUP4 PUSH2 0x736 JUMP JUMPDEST SWAP2 POP DUP3 PUSH1 0x2 MUL DUP3 OR SWAP1 POP SWAP3 SWAP2 POP POP JUMP JUMPDEST PUSH2 0x779 DUP3 PUSH2 0x479 JUMP JUMPDEST PUSH8 0xFFFFFFFFFFFFFFFF DUP2 GT ISZERO PUSH2 0x792 JUMPI PUSH2 0x791 PUSH2 0x275 JUMP JUMPDEST JUMPDEST PUSH2 0x79C DUP3 SLOAD PUSH2 0x589 JUMP JUMPDEST PUSH2 0x7A7 DUP3 DUP3 DUP6 PUSH2 0x6E3 JUMP JUMPDEST PUSH1 0x0 PUSH1 0x20 SWAP1 POP PUSH1 0x1F DUP4 GT PUSH1 0x1 DUP2 EQ PUSH2 0x7DA JUMPI PUSH1 0x0 DUP5 ISZERO PUSH2 0x7C8 JUMPI DUP3 DUP8 ADD MLOAD SWAP1 POP JUMPDEST PUSH2 0x7D2 DUP6 DUP3 PUSH2 0x754 JUMP JUMPDEST DUP7 SSTORE POP PUSH2 0x83A JUMP JUMPDEST PUSH1 0x1F NOT DUP5 AND PUSH2 0x7E8 DUP7 PUSH2 0x5BA JUMP JUMPDEST PUSH1 0x0 JUMPDEST DUP3 DUP2 LT ISZERO PUSH2 0x810 JUMPI DUP5 DUP10 ADD MLOAD DUP3 SSTORE PUSH1 0x1 DUP3 ADD SWAP2 POP PUSH1 0x20 DUP6 ADD SWAP5 POP PUSH1 0x20 DUP2 ADD SWAP1 POP PUSH2 0x7EB JUMP JUMPDEST DUP7 DUP4 LT ISZERO PUSH2 0x82D JUMPI DUP5 DUP10 ADD MLOAD PUSH2 0x829 PUSH1 0x1F DUP10 AND DUP3 PUSH2 0x736 JUMP JUMPDEST DUP4 SSTORE POP JUMPDEST PUSH1 0x1 PUSH1 0x2 DUP9 MUL ADD DUP9 SSTORE POP POP POP JUMPDEST POP POP POP POP POP POP JUMP JUMPDEST PUSH32 0x4E487B7100000000000000000000000000000000000000000000000000000000 PUSH1 0x0 MSTORE PUSH1 0x32 PUSH1 0x4 MSTORE PUSH1 0x24 PUSH1 0x0 REVERT INVALID LOG2 PUSH5 0x6970667358 0x22 SLT KECCAK256 CHAINID SELFDESTRUCT CALLVALUE DUP14 0xBA PUSH26 0x2F82E02C07BCB9FDE264CBF2459F76F27EA7CA55E214228B9E11 PUSH5 0x736F6C6343 STOP ADDMOD SLT STOP CALLER "
				},
				"gasEstimates": {
					"creation": {
						"codeDepositCost": "443000",
						"executionCost": "22586",
						"totalCost": "465586"
					},
					"external": {
						"addAge(uint8,uint8)": "infinite",
						"addName(string)": "infinite",
						"getAge(uint8)": "infinite",
						"getName(uint8)": "infinite"
					}
				},
				"methodIdentifiers": {
					"addAge(uint8,uint8)": "9df92b91",
					"addName(string)": "11456b47",
					"getAge(uint8)": "47e12f8c",
					"getName(uint8)": "618b220f"
				}
			},
			"storageLayout": {
				"storage": [
					{
						"astId": 3,
						"contract": "contracts/variables.sol:TestVariables",
						"label": "age",
						"offset": 0,
						"slot": "0",
						"type": "t_uint8"
					},
					{
						"astId": 5,
						"contract": "contracts/variables.sol:TestVariables",
						"label": "height",
						"offset": 1,
						"slot": "0",
						"type": "t_uint8"
					},
					{
						"astId": 7,
						"contract": "contracts/variables.sol:TestVariables",
						"label": "amount",
						"offset": 2,
						"slot": "0",
						"type": "t_uint128"
					},
					{
						"astId": 9,
						"contract": "contracts/variables.sol:TestVariables",
						"label": "balance",
						"offset": 0,
						"slot": "1",
						"type": "t_int256"
					},
					{
						"astId": 11,
						"contract": "contracts/variables.sol:TestVariables",
						"label": "name1",
						"offset": 0,
						"slot": "2",
						"type": "t_string_storage"
					},
					{
						"astId": 14,
						"contract": "contracts/variables.sol:TestVariables",
						"label": "name",
						"offset": 0,
						"slot": "3",
						"type": "t_bytes32"
					},
					{
						"astId": 16,
						"contract": "contracts/variables.sol:TestVariables",
						"label": "flag",
						"offset": 0,
						"slot": "4",
						"type": "t_bool"
					},
					{
						"astId": 20,
						"contract": "contracts/variables.sol:TestVariables",
						"label": "ages",
						"offset": 0,
						"slot": "5",
						"type": "t_array(t_uint8)10_storage"
					},
					{
						"astId": 23,
						"contract": "contracts/variables.sol:TestVariables",
						"label": "names",
						"offset": 0,
						"slot": "6",
						"type": "t_array(t_string_storage)dyn_storage"
					}
				],
				"types": {
					"t_array(t_string_storage)dyn_storage": {
						"base": "t_string_storage",
						"encoding": "dynamic_array",
						"label": "string[]",
						"numberOfBytes": "32"
					},
					"t_array(t_uint8)10_storage": {
						"base": "t_uint8",
						"encoding": "inplace",
						"label": "uint8[10]",
						"numberOfBytes": "32"
					},
					"t_bool": {
						"encoding": "inplace",
						"label": "bool",
						"numberOfBytes": "1"
					},
					"t_bytes32": {
						"encoding": "inplace",
						"label": "bytes32",
						"numberOfBytes": "32"
					},
					"t_int256": {
						"encoding": "inplace",
						"label": "int256",
						"numberOfBytes": "32"
					},
					"t_string_storage": {
						"encoding": "bytes",
						"label": "string",
						"numberOfBytes": "32"
					},
					"t_uint128": {
						"encoding": "inplace",
						"label": "uint128",
						"numberOfBytes": "16"
					},
					"t_uint8": {
						"encoding": "inplace",
						"label": "uint8",
						"numberOfBytes": "1"
					}
				}
			},
			"userdoc": {
				"kind": "user",
				"methods": {},
				"version": 1
			}
		}
	}
}